:020000040800F2
:10000000C4DB002035000008CD020020CD02002016
:10001000CD020020CD020020CD0200200000000013
:10002000000000000000000000000000CD020020E1
:10003000CD020020094A0A4B9342104601D10A48DA
:10004000004708499942FAD00022C91A8A42F6D2DA
:1000500050F8224043F822400132F7E7000200083E
:1000600000000020805F002041040020000000000C
:100070000000000000000000000000000000000080
:100080000000000000000000000000000000000070
:100090000000000000000000000000000000000060
:1000A0000000000000000000000000000000000050
:1000B0000000000000000000000000000000000040
:1000C0000000000000000000000000000000000030
:1000D0000000000000000000000000000000000020
:1000E0000000000000000000000000000000000010
:1000F0000000000000000000000000000000000000
:1001000000000000000000000000000000000000EF
:1001100000000000000000000000000000000000DF
:1001200000000000000000000000000000000000CF
:1001300000000000000000000000000000000000BF
:1001400000000000000000000000000000000000AF
:10015000000000000000000000000000000000009F
:10016000000000000000000000000000000000008F
:10017000000000000000000000000000000000007F
:10018000000000000000000000000000000000006F
:10019000000000000000000000000000000000005F
:1001A000000000000000000000000000000000004F
:1001B000000000000000000000000000000000003F
:1001C000000000000000000000000000000000002F
:1001D000000000000000000000000000000000001F
:1001E000000000000000000000000000000000000F
:1001F00000000000000000000000000000000000FF
:10020000C4DB002035000008CD020020CD02002014
:10021000CD020020CD020020CD0200200000000011
:10022000000000000000000000000000CD020020DF
:10023000CD02002000000000CD020020851F00201C
:10024000CD020020CD020020CD0200202504002098
:10025000CD020020CD0200200D040020F703002075
:10026000E1030020CB030020B5030020CD020020D5
:10027000CD020020CD020020CD020020CD020020C2
:10028000AD02002055020020CD020020CD0200204A
:10029000CD020020CD020020CD0200209F030020CF
:1002A000CD020020CD020020CD020020CD02002092
:1002B000CD020020CD020020CD020020CD02002082
:1002C000CD020020CD020020CD020020CD02002072
:1002D000CD020020E1010020FD010020CD02002020
:1002E00089030020CD020020CD020020CD02002095
:1002F000CD020020CD020020CD020020CD02002042
:10030000CD020020CD020020FD330020CD020020D0
:1003100000000000000000000000000000000000DD
:10032000CD0200207502002091020020CD020020A5
:10033000CD020020000000000000000000000000CE
:10034000000000000000000000000000CD020020BE
:10035000CD0200201D02002039020020C50100202E
:10036000CD020020CD0200200000000000000000AF
:10037000000000000000000000000000000000007D
:1003800000000000CD02002000000000000000007E
:10039000CD020020CD02002000000000000000007F
:1003A000000000000000000000000000000000004D
:1003B000CD0200200000000000000000CD0200205F
:1003C000CD020020684620F007018D4601B50348A4
:1003D00003F0A6F8BDE801408546704784C90020B7
:1003E000684620F007018D4601B5034803F098F8F0
:1003F000BDE8014085467047B0C90020684620F03E
:1004000007018D4601B5044B186803F089F8BDE873
:1004100001408546704700BF90630020684620F089
:1004200007018D4601B5034803F096F8BDE8014089
:100430008546704784C90020684620F007018D4634
:1004400001B5034803F088F8BDE8014085467047D0
:10045000B0C90020684620F007018D4601B5044B65
:10046000186803F079F8BDE801408546704700BF81
:1004700090630020684620F007018D4601B50348CF
:1004800003F090F8BDE801408546704784C900201C
:10049000684620F007018D4601B5034803F082F855
:1004A000BDE8014085467047B0C90020684620F08D
:1004B00007018D4601B5044B186803F073F8BDE8D9
:1004C00001408546704700BF90630020684620F0D9
:1004D00007018D4601B5014B5B68FEE700ED00E0CA
:1004E000264B5B68684603F03F0320F00701103B92
:1004F0008D46092B01B517D007D8072B0ED010D881
:10050000062B37D10122002329E0172B0FD0282BEF
:1005100019D00A2B2ED11022042320E0022201231D
:100520001DE0042202231AE00822032317E01448E6
:10053000202205234169114211D101330A2B4FEAD0
:100540004202F7D10BE00E484FF480620A23416962
:10055000114204D10133102B4FEA4202F7D108496E
:100560004A61084A0C2101FB03235A6812B19868BA
:100570005B689847BDE801408546704700ED00E0A4
:10058000003C0140E4CA0020684620F007018D4687
:1005900001B5FFF7A5FFBDE80140854670476846F5
:1005A00020F007018D4601B5FFF7EEFFBDE80140E1
:1005B00085467047684620F007018D4601B5FFF774
:1005C000E3FFBDE8014085467047684620F007011B
:1005D0008D4601B5FFF7D8FFBDE80140854670475D
:1005E000684620F007018D4601B5FFF7CDFFBDE855
:1005F000014085467047684620F007018D4601B5E9
:10060000FFF7C2FFBDE8014085467047684620F00D
:1006100007018D4601B5FFF7B7FFBDE801408546EC
:10062000704700BF684620F007018D4601B54FF4C2
:10063000800003F035F9BDE80140854670470000B1
:1006400025498D461A4B1B4A9A60A3F55D4300224B
:100650005A601A6842F001021A6001F0FFFC01F0D2
:100660004BFD15481549884205D0154A824202D0F3
:10067000121A04F008F81348134A144C121A0021F5
:1006800004F027F801F03AFD01F0A2F8104BE41A4B
:10069000A40800251E46A54204D056F825309847E8
:1006A0000135F8E700F08AF8014B0A4ADA6000BF2A
:1006B00000ED00E000000020805F00208061000865
:1006C0003C6400204064002024CC0020785F00209F
:1006D000785F00200400FA05C4DB0020074A0849BF
:1006E00013681844884289BF064B10600C224FF0F3
:1006F000FF308CBF1A601846704700BF805F002033
:10070000F8FF032020CC00204FF0FF3070474FF45B
:1007100000534B6000207047022808B505D903F04C
:100720000FFE09230360002008BD012008BD002042
:10073000704710B5144630B94FF0FF33012001F077
:100740006BFA204610BD03F0FBFD092303604FF058
:10075000FF3010BD0138012810B5144606D903F04A
:10076000EFFD092303604FF0FF3010BD012001F0C1
:1007700041FA204610BD38B50124204601F060FA48
:10078000016911F0020507D1204601F059FA294606
:10079000C268204601F056FB0134E3B2082B5CB27C
:1007A000EBD138BD0020704710B50446FFF7E3FFDA
:1007B0002046BDE8104001F015BC000008B501F06E
:1007C0004DFC01F099FC01F099FC01F03BF801F0BF
:1007D000CDFB00F019FCFFF7CEFF01F066F810B179
:1007E00001F055F818B1022001F02AFA08E0FFF7ED
:1007F000D9FF40B1032001F023FA0378032B02D084
:100800008068FFF7D1FF044B044A0549054804F00E
:1008100015F800F0D3F8FCE780550020845500203F
:1008200089550020845F00202DE9F0419AB00DF138
:10083000040804461546404664221E460F4604F04E
:100840001AF9234B18680DF1030313F9012F42B174
:100850008118497801F00301022908BF203A1A7073
:10086000F3E7224612F9013B4BB32D2BFAD1101BB3
:10087000002318F9031019B114F900E08E4503D0D4
:10088000FB56002BEED102E001300133F1E7235695
:1008900033F02003E6D1421CA356202B01D10132B4
:1008A000FAE700202244135633F0200109D02D2B03
:1008B00007D005B12B540130B042F4D101E04FF024
:1008C000FF300DB100232B541AB0BDE8F08100BFFA
:1008D000D46300202DE9FF411A4D06460F462868D3
:1008E00069682B8901AC03C490461748238004F043
:1008F0002BF843463A463146144800F095FC041E56
:100900000CDD1349134803F099FF214601A801F0BB
:100910004BF801A9104803F091FF0FE0621C03D1CE
:100920000E4803F08BFF09E0A31C01D10C4803E043
:1009300003340CBF0B480C4804F006F804B0BDE8C3
:10094000F08100BF935500209E5500204065002097
:1009500040640020D8550020F75500200B56002099
:10096000325600204B56002058560020F7B504465A
:100970000F480D4616461F4603F060FF01224FF058
:10098000FF330DF10701104601F046F99DF80730DD
:10099000432B0BD13B4632462946204600F0C6FD8C
:1009A00008B1044800E0044803F048FF03B0F0BD7C
:1009B0006B560020815600209E5600202DE9F04104
:1009C000B2B012AD8022002128460EAC03F081FEA9
:1009D0000F220021204603F07CFEAD4EAD4FAE4805
:1009E00003F02CFF3368986803F062FD80212846ED
:1009F00000F087FE0023EA56202A01D10133FAE7EE
:100A0000013B3868EA1812F9013F43B1C11849782F
:100A100001F00301022908BF203B1370F3E7EA56F7
:100A2000202A01D10133FAE700222B44995631F0F4
:100A3000200002D0A1540132F8E732AB1A449749A2
:100A400002F8900C204604F00CF820B1944920469E
:100A500004F007F8D0B9012001F0F2F80023804635
:100A60001A4690492846FFF7DFFE013006D08E482F
:100A700003F0E4FED8F80C308C4A23E08C4803F0F5
:100A8000DDFED8F80C2000210120AFE08949204686
:100A900003F0E7FF20B18849204603F0E2FF00BBE6
:100AA000022001F0CDF8002380461A467D492846F1
:100AB000FFF7BAFE01300CD0804803F0BFFED8F833
:100AC0000C307F4AD8F8081098F80000FFF74EFF66
:100AD00085E77C4803F0B2FED8F80C200021022004
:100AE00084E07949204603F0BCFF20B177492046D5
:100AF00003F0B7FFE8B9052001F0A2F8804608B975
:100B000073481CE100231A4666492846FFF78CFE0D
:100B1000013006D06F4803F091FED8F80C306E4AD1
:100B2000D0E76E4803F08AFED8F80C20002105209B
:100B30005CE06B49204603F094FF28B169492046E8
:100B400003F08FFF00285DD1002303AA66492846E1
:100B5000FFF76AFE013017D005A903A800F042FF95
:100B6000059B20B95A1E062A01D86048E7E058B212
:100B700001F066F8002380461A465D492846FFF7D3
:100B800053FE013002D118E05A48D8E0D8F80410DA
:100B9000594803F053FE0021D8F80C209DF91400A9
:100BA00001F09AF9014600287FF419AFD8F80C201B
:100BB0009DF9140001F050F811E7002339491A4655
:100BC0002846FFF731FE0130D8F8041006D04B4814
:100BD00003F034FED8F80C30494A73E7494803F073
:100BE0002DFED8F80C209DF91400002101F074F9B5
:100BF00000287FF4F4AED8F80C20D8F8081098F844
:100C00000000FCE04049204603F02BFF30B13F4993
:100C1000204603F026FF002840F0F480012304AAB8
:100C20003B492846FFF700FE013001D1394886E0F4
:100C30000DF10B0104A800F0D5FE08B936487EE09E
:100C40009DF80B30012B01D9344878E00A2308AA1B
:100C500033492846FFF7E8FD013017D006A908A858
:100C600000F0C0FE002880D00A230BAA2D49284698
:100C7000FFF7DAFD013007D007A90BA800F0B2FE9C
:100C8000002855D128485AE0284858E0002350E071
:100C900038640020D4630020AF560020BA560020EC
:100CA00082550020715B0020C5560020DC560020D4
:100CB000F05600200B570020AC5B0020145700209A
:100CC0002C570020415700205D570020B75B0020C3
:100CD0006A5700209A570020B2570020C2570020C0
:100CE000DC570020E6570020E8570020EB57002093
:100CF000955B002006580020325800204458002000
:100D00008F59002053580020665800207258002048
:100D100074580020785800209B580020BD580020AF
:100D2000D8580020DE580020E2580020FB58002050
:100D30000123069A0799914204DA23B1644803F02B
:100D40007DFD4CE653B9634B9DF80B2003EB02127B
:100D50005168069193680B44013B079300231A46A0
:100D60005D492846FFF760FD01301FD0079B069ABA
:100D70009DF80B105948DFF85C8103F05FFD9DF88A
:100D80000B0008EB001002F0DBF89DF80B00079A4F
:100D9000069908EB001001F04FFD9DF80B00079A33
:100DA000069908EB001001F005FF18E600231A462B
:100DB0004B492846FFF738FD0130079B069A9DF8FE
:100DC0000B100AD0474803F039FD0699079B464AA5
:100DD0009DF80B005B1A013378E6444803F02EFDC2
:100DE0009DF80B003B4B079A069903EB001001F0AE
:100DF00023FD0699079A9DF80B00521A0132FFF75E
:100E000069FDECE53A49204603F02BFE20B1394953
:100E1000204603F026FED8B90D2003F027FD4FF041
:100E200000084FFA88F000F00BFF0378032B09D07D
:100E300042683AB1C1680191816800912E484146EB
:100E400003F0FCFC08F10108B8F1080FE9D1C6E590
:100E50002A49204603F005FE20B12949204603F027
:100E600000FE48B9274803F0E9FC022000F0E8FE44
:100E70008068FFF799FCB2E52349204603F0F1FDB5
:100E800020B12249204603F0ECFD28B9204803F0A8
:100E9000D5FC00F0D3FE17E01E49204603F0E1FD2B
:100EA00020B11D49204603F0DCFD30B91B4B1C4A24
:100EB0001C491D4803F0C2FC06E09DF838301BB108
:100EC0001A491B4803F0BAFC32B0BDE8F08100BFFC
:100ED0001C590020445D0020955B00203159002002
:100EE000715B00205F5900208A5900209959002029
:100EF000C8590020D2590020D45900201B5A002084
:100F0000045A0020065A0020195A0020205A0020B6
:100F1000225A0020375A00203C5A002080550020D9
:100F20008455002089550020845F00203E5A00200F
:100F30007E63002073B5431E04460D4600F1170280
:100F400013F8011FFF2903D19A42F9D1012057E07C
:100F5000637C552B53D10420266800F071FE836812
:100F60009E4244D1237C422B01D1012306E0412B38
:100F700001D1022302E0442B3BD105232B7095F9CC
:100F80000000666800F05CFEC3689E4233D8002310
:100F9000668AADF802306846019395F9005064689E
:100FA00000F084FD4FF6FF739E421ED0284600F0ED
:100FB00047FED0B1002C13DDB4F5805F2546A8BFF5
:100FC0004FF480552B460F4A01A9042000F0E4FE9F
:100FD00098B92A460B496846641B00F06AFDE9E7A8
:100FE0000DF10201684600F072FD022008E00620C3
:100FF00006E0042004E0052002E0082000E00320D1
:1010000002B070BD407900202DE9F0438DB000237F
:10101000042002930493059300F012FE0378032B3F
:10102000064601D16F4CD8E0062000F009FE037897
:10103000032B0746F6D04FF48052FF216A4803F095
:1010400048FB4FF48052FF21684803F042FBFA68E6
:101050006748FF2103F03DFB18230DEB030204A9B1
:10106000062000F099FE0446002840F0B6800DF1FD
:10107000070106A8FFF75EFF022825D0F768DFF812
:1010800068813F0B2546AF420CD1F368C3F30B03D5
:10109000554A02A9042000F07FFE002840F09A8003
:1010A000002306E04FF48053F2E70133B3F5805F8D
:1010B00006D013F80820FF2AF7D0F26800217FE05D
:1010C0000135AF42DFD288E09DF9070000F0B8FD9E
:1010D0000378032B0546A5D0C2689DF90700039449
:1010E0002146029400F0F8FE0446002875D101461E
:1010F000EA689DF9070000F0AFFD044600286CD1B6
:10110000079B80464FEA1339C1450DD1079DC5F3B2
:101110000B055DB90021FA680591062000F0DCFEA0
:101120000446002859D12CE04FF480552B462E4A16
:1011300002A9042000F030FE044600284DD12B46C1
:10114000294A9DF9070003A900F0D0FD04460028B4
:1011500043D1039B254A9DF907005B1B039303A919
:101160002B4600F019FE0446002836D12A461F49B6
:101170001D4803F079FA78BB08F10108C145C3D2D4
:10118000C8E7FB681A4A05A9062000F005FE0446D8
:1011900018BB1822FF21164803F09BFA2146FA6873
:1011A000062000F059FD0446B8B90590FB68104AC6
:1011B00005A9062000F09AFD044670B9F2680146C0
:1011C000042000F089FE044638B90146F268042084
:1011D00000F042FD044600E0064C20460DB0BDE89C
:1011E000F08300BFB1E5FFFF407900204069002097
:1011F00040890020A5E5FFFF012208B50B46014606
:10120000104600F009FD003018BF0120404208BD23
:1012100007B502A9012201F8010D104600F0EAFC11
:10122000002003B05DF804FB2DE9F04F9A467A4B9D
:10123000DFF8E8B1ADF23C4D03EB01180024814624
:1012400040460592079401F07BFE01940026374644
:101250004FF47A710DF11B00FFF7CEFF002840F02C
:10126000C5809DF81B20042A4AD007D8012A28D01F
:10127000022A40F0BB804FF4806523E0412A04D06D
:10128000612A02D0182A09D0B0E01820FFF7C0FF69
:101290001820FFF7BDFF6FF00205B8E04FF47A7138
:1012A0000DF11B00FFF7A8FF0546002840F09E80C7
:1012B0009DF81B30182B40F099800620FFF7A8FFFF
:1012C000A5E080250CAB291D1A700291012202991C
:1012D00091420EDB4FF47A71981804920393FFF752
:1012E0008BFF002840F08280049A039B013292B267
:1012F000EDE79A785978D243D2B2914276D11DB9AE
:101300000620FFF785FFA1E7FAB2914203D015202E
:10131000FFF77EFF68E0002F45D1DB78002B3DD042
:1013200039460DF1330213783BB1B1F5807F04D01B
:101330000BF8013001320131F5E7384800234354FE
:1013400008A812F8011F202904D0102B02D0C15484
:101350000133F6E7002207A9C25400F043FB079CC3
:101360000AF101039C420EDD1820FFF751FF1820FF
:10137000FFF74EFF1820FFF74BFF1820FFF748FF3D
:101380004FF0FF3543E005994A1E5244404601F0B4
:1013900011FC0620FFF73CFF432016E00620FFF774
:1013A00037FF079D33E02A460DF13301484603F02D
:1013B0006AF9A5422B464A46A8BF234605A94046DE
:1013C000E41A01F05BFB30B90620FFF721FF01238F
:1013D0000137019308E01820FFF71AFF1820FFF7E4
:1013E00017FF6FF0010512E0002631E7019B03B102
:1013F0000136142E07DD1820FFF70AFF1820FFF72B
:1014000007FF002503E04320FFF702FF20E72846FF
:101410000DF23C4DBDE8F08F445D0020406400209B
:10142000F0B5012303700546002343700446FF20F6
:1014300005F8020F85B040F2011ECF5C9EB218463F
:101440003FB10133734502D005F8017FF5E74FF452
:10145000807620440025C570116801A8043600F08C
:10146000A3FAB6B22A4691B204A88B1901449BB2E2
:1014700011F80C1C013209B1E154F4E7822B03D8B6
:10148000E15401339BB2F9E705B0F0BDF7B516465C
:10149000089A154F0191B2F5806F2CBF4FF480650B
:1014A0008025AA4228BF2A46B5F5806F0CBF0221CD
:1014B00001217370DB4394B23170B37001A91346FC
:1014C00007EB0010F21C01F007FAA54209D3E31C58
:1014D0009BB202351A229D4203DBF25401339BB2C8
:1014E000F9E703B0F0BD00BF445D002037B50D46FD
:1014F000044601A800F0DAFA2A46214601A800F0C5
:10150000D8FA01A80DF1060100F0E1FABDF80600D5
:1015100003B030BD013938B5451E4418A54204D08A
:1015200015F8010FFFF774FEF8E738BD2DE9F04F0D
:10153000ADF2245D0E4603938146002306A9D05CDC
:1015400058540133FF2BFAD103AA46A8FFF768FFCE
:101550000024832146A8FFF7DDFF80210DF21B1038
:10156000FFF7C4FF0546C0F30720FFF751FEE8B2BE
:10157000FFF74EFE4FF47A7105A8FFF73DFE804657
:1015800020B99DF81430062B01D104E00134092C58
:10159000DFD9E0B2A6E0092CFBD84FF47A7105A898
:1015A000039DFFF729FE0127C246002D3ED0FBB266
:1015B000009546AA31464846FFF768FFB5F5806FAB
:1015C0002CBF4FF480684FF080088DF814A008F10C
:1015D00003030024194646A80293FFF79BFF4146E8
:1015E0000DF21B10FFF782FF8346C0F30720FFF7C1
:1015F0000FFE5FFA8BF0FFF70BFE4FF47A7105A830
:10160000FFF7FAFD029B68B99DF81420062A09D15C
:101610004545464404D90137C8EB0505BFB2C4E7C8
:10162000054603E001340A2CD4D112E08DF81450A1
:1016300000240420FFF7ECFD4FF47A7105A8FFF7B2
:10164000DBFD18B99DF81430062B04D001340A2CA8
:10165000EFD1204646E001238DF81831FF238DF8A5
:101660001A318DF814008DF81901034646AA024478
:1016700001308028D370F9D10024832146A8FFF7D8
:1016800049FF80210DF21B10FFF730FF0546C0F324
:101690000720FFF7BDFDE8B2FFF7BAFD4FF47A71FE
:1016A00005A8FFF7A9FD20B99DF81430062B16D127
:1016B00001E0013413E0092C3FF66BAF0420FFF783
:1016C000A7FD0A2105A8FFF797FD18B99DF814306A
:1016D000062B07D0092C14BF00200A2002E0092C99
:1016E000CBD956E70DF2245DBDE8F08F07B502A90E
:1016F000012241F8040D104600F07CFA03B05DF8B9
:1017000004FB73B505460E46002401224FF0FF335B
:101710000DF10701104600F07FFA9DF907300D2BFF
:1017200004BF0A238DF807309DF90700082801D06F
:101730007F280CD1A4B10820FFF7D8FF2020FFF7A5
:10174000D5FF0820013C013DFFF7D0FF08E020F065
:101750000203112B04D005F8010BFFF7C7FF01347A
:10176000731E9C4204DB002305F8013C02B070BDEF
:101770009DF907300A2BC8D1F5E70000134B102262
:1017800083F80323202283F83123302283F83B237C
:101790006021702283F8471383F8452383F83923A7
:1017A00083F8261383F8102383F81123E02283F8AB
:1017B000062383F8072383F8082383F8092383F893
:1017C0000A2383F8172383F82823704700E100E0F9
:1017D0007FB503211A2000F0C7F91A2000F0E0F9C4
:1017E0000421192000F0C0F9192000F0CBF90021E4
:1017F0001D2000F0B9F900211E2000F0B5F90F23DB
:101800008DF808300D4B049341F2883303930C4B51
:10181000009302AB0ECB002000F08EF800F01AFD12
:10182000002000F01BFD00F03DFD00221146104697
:1018300007B05DF804EB00F040BD00BF0000000001
:101840000000000008B503211A2000F08DF91A20CD
:1018500000F0A6F90421192000F086F9192000F003
:1018600091F900211D2000F07FF900211E2000F0D9
:101870007BF900F0EFFC002000F0F0FC00F012FD1E
:10188000002211461046BDE8084000F016BD08B51C
:101890001D2000F093F930B91E2000F08FF980F080
:1018A0000100C0B208BD002008BD08B51D2000F031
:1018B00085F920B91E20BDE8084000F07FB900205E
:1018C00008BD0023C361836903B118477047000056
:1018D00038B50546044615F8080B00F06FF970B9E5
:1018E0002346144A2078012100F074F902F0EBFC41
:1018F0000130E0612846BDE8384002F0EBBC02F060
:10190000E2FCE36953B1C3F101031844322805DD59
:101910006368984202DA636903B198472346054A2F
:101920002078022100F056F9284602F0D7FC002367
:10193000E36138BDD116002084B02DE9F047074699
:1019400009A880E80E00DFF85C809DF824600B9BFE
:10195000DDF828907D0108EB0504002163610C9BF4
:10196000E161A361C4F80490304608F8056000F016
:10197000FBF80A4A05F10800234652F82720494699
:10198000404402F0A3FC064A234652F82720304682
:10199000BDE8F047022104B000F01CB994630020B8
:1019A000A8630020DCC90020F0B50A2200230C4DFA
:1019B0001C469646B1FBF5F707F13006F6B2302E1D
:1019C00005FB17110655B5FBFEF500D113B1013427
:1019D000013301E000231C46013AEBD1F0BD00BF0A
:1019E00000CA9A3B70B50378302B2AD1437803F0B4
:1019F000DF03582B25D18378002B44D0451C0024CD
:101A00000A3015F8012F0AB90C602DE022F02003EE
:101A1000413B052BA2F1300302D9DEB2092E32D8A8
:101A2000DEB2092E4FEA041407D9A2F14103052BB7
:101A300094BFA2F13703A2F1570385421C44E0D1C1
:101A400021E000231A460A25845C64B16B2C0DD07A
:101A50004B2C02D10AB19B0205E004F0DF064D2EAB
:101A600006D12AB11B050B60012070BD002AF2D1FE
:101A7000A4F13006092E06D8013205FB03430B2AD8
:101A8000A3F13003E0D1002070BD41F48071490022
:101A90004000CB0548BF0130C20344BF80F48150F1
:101AA00080F00100CB03F2D580B2704700230380A1
:101AB000704770B505460C468E18B44206D214F82D
:101AC000011B2888FFF7E1FF2880F6E770BD38B5D5
:101AD00004460D4600880021FFF7D7FF0021FFF7DD
:101AE000D4FF2080288038BD2DE9F843C3B2072BEE
:101AF0002AD814235843174B1E5C032E26D0164DAC
:101B00000C2303FB0653181D5B68BBB10C277743FE
:101B100005EB070909F10408404602F0D0FB0F4B22
:101B200003EB0616304601F00BFA01230446EE5192
:101B3000404689F8083002F0C4FB08E002F0B4FB2C
:101B400004460028E2D002E0054C00E0054C2046A7
:101B5000BDE8F883505A002040C90020445D0020B1
:101B6000CFE5FFFFB9E5FFFF202804D8034B03EBC7
:101B7000C00000F051BC0248704700BF445C002028
:101B8000B1E5FFFF202804D8034B03EBC00000F0B1
:101B9000B9BB0248704700BF445C0020B1E5FFFFBD
:101BA000202804D8034B03EBC00000F0BFBB024861
:101BB000704700BF445C0020B1E5FFFF202804D837
:101BC000034B03EBC00000F0C5BB0120704700BF12
:101BD000445C0020202810B405D8044C04EBC0005D
:101BE00010BC00F059BC024810BC7047445C002097
:101BF000B1E5FFFF022810B406D8054B2C2404FBE6
:101C0000003010BC01F03CBA024810BC704700BF65
:101C100084C90020B1E5FFFF022830B406D8054C86
:101C20002C2505FB004030BC01F07EBA024830BCD8
:101C3000704700BF84C90020B1E5FFFF00F0FEB986
:101C4000C3B2072B9DBF034B142202FB00300020C0
:101C5000704700BF505A00202DE9F041A2B3C3B233
:101C6000072B35D814231C4C434304EB030EE65CCE
:101C7000032E2BD0DEF80850DEF80C306F1807F179
:101C8000FF3890442B44984522D2144D0C2303FB7B
:101C900006531B7A93B10C2303FB065504352846E3
:101CA00002F00DFB0E484246394600EB061000F0EC
:101CB00081FF0446284602F004FB0AE0FFF714FF08
:101CC00004460028E7D004E0144602E0054C00E09A
:101CD000054C2046BDE8F081505A002040C9002044
:101CE000445D0020B9E5FFFFCFE5FFFF2DE9F34795
:101CF000884691469A46002B3FD0C3B2072B01D9A4
:101D0000204C3BE01423204A4343D118D65C032ED9
:101D100031D08F68D8F80030D8F800203B440193C8
:101D20007B1E1A44CB6852443B449A42E8D2174D7A
:101D30000C2303FB06531B7ABBB10C2303FB065594
:101D40000435284602F0BBFA114853464A4601A919
:101D500000EB061000F092FE019BDF1B0446C8F862
:101D60000070284602F0ADFA08E0FFF7BDFE044619
:101D70000028E2D002E0074C00E01C46204602B0FA
:101D8000BDE8F087CFE5FFFF505A002040C9002092
:101D9000445D0020B9E5FFFF2DE9F34788469146F1
:101DA0009A46002B3FD0C3B2072B01D9204C3BE011
:101DB0001423204A4343D118D65C032E31D08F68B8
:101DC000D8F80030D8F800203B4401937B1E1A4419
:101DD000CB6852443B449A42E8D2174D0C2303FB94
:101DE00006531B7ABBB10C2303FB0655043528466A
:101DF00002F065FA114853464A4601A900EB061065
:101E000000F06AFD019BDF1B0446C8F800702846FD
:101E100002F057FA08E0FFF767FE04460028E2D018
:101E200002E0074C00E01C46204602B0BDE8F08707
:101E3000CFE5FFFF505A002040C90020445D00203C
:101E4000B9E5FFFF2DE9F041A2B3C3B2072B35D8A6
:101E500014231C4C434304EB030EE65C032E2BD0EF
:101E6000DEF80850DEF80C306F1807F1FF389044A8
:101E70002B44984522D2144D0C2303FB06531B7AA6
:101E800093B10C2303FB06550435284602F017FADC
:101E90000E484246394600EB061000F0E5FC0446C9
:101EA000284602F00EFA0AE0FFF71EFE044600285C
:101EB000E7D004E0144602E0054C00E0054C204663
:101EC000BDE8F081505A002040C90020445D002048
:101ED000B9E5FFFFCFE5FFFF2DE9F041A2B3C3B2A3
:101EE000072B35D814231C4C434304EB030EE65C4C
:101EF000032E2BD0DEF80850DEF80C304F1907F116
:101F0000FF3890442B44984522D2144D0C2303FBF8
:101F100006531B7A93B10C2303FB06550435284660
:101F200002F0CDF90E484246394600EB061000F0AB
:101F300083FC0446284602F0C4F90AE0FFF7D4FD0A
:101F400004460028E7D004E0144602E0054C00E017
:101F5000054C2046BDE8F081505A002040C90020C1
:101F6000445D0020B9E5FFFFCFE5FFFFF0B5194B59
:101F70008DB01E6A03AC21220021A6F12007204665
:101F8000029702F0A6FB2023224602A90120FFF7B8
:101F900003FF0025635DFF2B19D10135202DF9D1F9
:101FA0004FF4612301930C4B00930C4A0C4B2121FD
:101FB000204602F0E1FC3246002101200297FFF7A3
:101FC0008BFF2B46224602A90120FFF78FFE0DB0A2
:101FD000F0BD00BF505A002084550020645D0020F1
:101FE000895500200268134B1340B3F1005F18BFFE
:101FF00000F500700F4B02681340B3F1005F10B59D
:1020000016D10D4A136823F0010313604FF0FF341B
:102010000023F03203F120010133082B42F8214064
:10202000F8D1036883F30888436843F00103184735
:1020300010BD00BF0000FE2F10E000E0BFF34F8F87
:102040000449054BCA6802F4E0621343CB60BFF356
:102050004F8FFEE700ED00E00400FA0507B5012010
:1020600001F06AFD01F06CFE002001F099FD0020F6
:1020700001F0AAFD4FF4805001F09CFD032001F017
:1020800015FC012001F018FC082202238DE80C0049
:102090004FF480000423C0220D2101F055FD0120E2
:1020A00001F066FD392001F037FE0028FAD0022049
:1020B00001F064FD01F06CFD0828FBD1042001F063
:1020C000D9FA0A4B4FF47A721B68B3FBF2F3084A51
:1020D000013B5360074BF02183F8231000239360EA
:1020E0000723136003B05DF804FB00BFC06300204A
:1020F00010E000E000ED00E07047000008B54FF090
:102100008050012101F0D8FD022001F003FD38B11B
:102110007D2001F001FE18B101F02AFE01F0EAFC79
:10212000022001F001FD0023FF2103F1604202F5CE
:1021300061420133512B82F80013F6D14FF4407005
:1021400001F08EFAFFF71AFB00F016F94022084959
:10215000084802F0C7F8074B074A0849084801F049
:1021600067F800F067F8BDE8084000F02BB800BF42
:102170007CCA0020C0CA0020705D0020005C0020E6
:10218000B0C90020024A13680133136001F030BA6D
:10219000BCCA0020014B1868704700BFBCCA0020B1
:1021A000054B064A00200021C3E90001002313600B
:1021B000034A1360704700BFD0CA0020E0CA002065
:1021C000DCCA002038B5FFF7EBFF0E4A0E4CD3688F
:1021D0000E4843F08073D3600D4B00225A601A689A
:1021E00042F001021A600123B4FBF3F2B0FBF2F1FA
:1021F0004A430649891A5D1C09B12B46F4E7054A92
:10220000136038BDF0ED00E000D8B80500CA9A3B75
:10221000001000E0D8CA002010B5054C032120466C
:1022200000F0FAF8204600F081F8002010BD00BF51
:10223000005B002010B5064CFFF7EEFF032120469F
:1022400000F0EAF8204600F071F8002010BD00BF51
:10225000F05A002003211620FFF786BC08B518B9F4
:102260001620FFF79DFC02E01620FFF78BFC0020F4
:1022700008BD38B5054620241320FFF791FC002D3A
:102280004FF0140002DAFFF77DFC01E0FFF788FC55
:102290001320013CFFF776FC14F0FF044FEA4505DC
:1022A000EAD138BD08B503211320FFF75DFC0321F7
:1022B0001420BDE80840FFF757BC70B50446002065
:1022C0000E461546FFF7D5FF6FEA94106FEA161316
:1022D00000F0030003F00C0360F03F0018436FEAC6
:1022E000950303F0300344EA062444EA0542184308
:1022F00042EA0060FFF7BDFF0020BDE87040FFF735
:10230000B8BF000010B5044600F076F93CB1217961
:10231000226801238B409BB21383002400E0024C0F
:1023200000F080F9204610BDCFE5FFFF10B5044650
:1023300048B100F061F92179226801238B409BB2FA
:102340005383002400E0024C00F06CF9204610BDDD
:10235000CFE5FFFF10B5044600F04EF944B1236805
:1023600021791A6901238B40134214BF01240024F0
:1023700000F058F9204610BD08B5C02200210548DC
:1023800002F0A7F901214FF4804001F0A1FC0020E8
:1023900008BD00BFE4CA00201B4B98422AD012D8C7
:1023A000A3F54063984221D004D8A3F580639842F6
:1023B00028D025E0154B98421AD003F58063984247
:1023C0001ED103207047124B984215D005D8A3F5B3
:1023D0008063984214D1052070470E4B98420DD06F
:1023E00003F5806398420BD10820704701207047A5
:1023F000022070470420704706207047072070476E
:10240000FF20704700207047001002400008024083
:1024100000180240001C024073B505460C4600F04F
:10242000EBF86DB32A681046FFF7B6FF1749184B53
:102430000E6B53F8203033430B6302239C4294BF4E
:10244000002101218DF80410E11E18BF01218DF833
:1024500005308DF806100CB1052C01D1012302E0E6
:10246000012C18BF002329798DF8073001238B40F8
:1024700002A9104641F8083D01F0E0FA002400E00E
:10248000044C00F0CFF8204602B070BD0038024086
:102490007C5D0020CFE5FFFF2DE9F3470C460546A4
:1024A00090461F4690F8049000F0A6F8022C05D044
:1024B000032C05D0012C59D1082602E00C2600E09F
:1024C00010262B790A2B0DD12B682C4A934202D16E
:1024D0000221072004E02A4A934203D10221082066
:1024E00001F04EFC0123286803FA09F9FFF754FFB5
:1024F000297901F045FC19F01F0F03D02C7906341F
:1025000064B209E019F4787F05D119F47C4F0CBF4F
:102510000024282400E0172404F01F0A6409194B42
:10252000A40004F16044C3F8149004F5614401234D
:1025300003FA0AFAC4F880A18DF8056068460026FF
:102540008DF80630CDF800908DF8046001F06EF93A
:10255000C4F800A02A790C4928680C235343CA18F0
:10256000C8503446C2F80480976000E0074C00F081
:1025700059F8204602B0BDE8F08700BF001C0240B9
:1025800000200240003C0140E4CA0020CFE5FFFFEC
:102590002DE9F3410D4617461E460446FFF7FCFEA3
:1025A000804600F029F81248124A036B52F82810AE
:1025B0001943016302218DF805108DF804100123E1
:1025C00002A9AB4041F8083D20468DF806708DF811
:1025D000076001F033FA9DF820202946204601F0DB
:1025E0006FFA00F01FF8002002B0BDE8F08100BFD4
:1025F000003802407C5D002072B6084B1A68002A41
:1026000006DC07490A6922F004020A6100221A6006
:102610001A6801321A6062B600207047A4CB00200D
:1026200000ED00E072B6084A1368013B002B13600E
:1026300006DC06490B6943F004030B6100231360B9
:1026400062B60020704700BFA4CB002000ED00E080
:102650002DE9F041114F04460D4601EB02084545B6
:1026600018D02368BB4215D815F8016B2068314695
:1026700001F0C8F9092807D123681B78B34206D1B5
:10268000236801332360EAE70548BDE8F081054887
:10269000BDE8F0810020BDE8F08100BFFFFF0F081A
:1026A000A5E5FFFFC7E5FFFF38B5234C4FF4005207
:1026B00022624FF480720023A26220460622A360A9
:1026C0006360E360A36123616362E3612360E262AC
:1026D000636101F0B9FC202001F050FD054600289F
:1026E000F9D1102001F0F4FC022108462A4601F03D
:1026F000DBFC012001F024FD284601F009FD4FF02C
:10270000006323604FF0807323610B4865620523EB
:10271000E36201F099FC082001F030FD0028FAD0B6
:10272000082001F035FD022001F032FD202001F0EB
:1027300025FD0028FAD138BDB4CB002010B52020EB
:1027400001F01CFD04460028F9D101F0E1FC22460D
:1027500040F20111204601F0A7FC012001F0F0FC3D
:10276000204601F0D5FC0C484FF0006303604FF0A9
:102770008073036105234462C36201F065FC082095
:1027800001F0FCFC0028FAD0082001F001FD022035
:10279000BDE8104001F0FCBCB4CB002000F1784350
:1027A000B3F5804F32D3A3F58042B2F5804F2FD3DB
:1027B000A3F50042B2F5804F2CD3A3F54043B3F507
:1027C000804F29D300F1774000F57F03B3F5803FB8
:1027D00024D3184B00F57E029A4221D900F57C02E1
:1027E0009A421FD900F57A029A421DD900F5780263
:1027F0009A421BD900F576029A4219D900F5740065
:10280000B0F5003F34BF502058207047002070477B
:10281000082070471020704718207047202070470C
:10282000282070473020704738207047402070477C
:1028300048207047FFFF010010B570B144688C421A
:102840000BD883682344013B934206D303680448B2
:1028500033F0020308BF002010BD024810BD00BFC6
:102860009CE5FFFFCFE5FFFFFFF7E6BF70B5012056
:102870000D4614461E4601F00BFC002001F050FCF2
:10288000002001F031FC12484FF4005303624FF076
:10289000406303604FF4406343624FF4807383628C
:1028A0004FF040730361EB23C3620623436101F0E1
:1028B000CBFB084B196832462944204601F0E3FE61
:1028C00001F04EFC002001F0E3FB002070BD00BFD2
:1028D000B4CB0020BC630020F8B50D4696461E46DA
:1028E00000B309684768B9421CD32C6881681C444E
:1028F00039448C4216D804684CB91A462968704687
:1029000001F0C1FE2B681E442E602046F8BD022C4B
:102910000AD129680548FFF7A9FF30B92B681E4482
:102920002E60F8BD0248F8BD0248F8BDA8CB0020D3
:10293000CFE5FFFF9CE5FFFF007A0128F8B50F46C1
:1029400016461C4635D11C4D01F0A2FBFFF7ACFE2C
:10295000601E01F0DDFB284601F046FB4FF480735A
:10296000AB624FF440636B624FF400524FF0407320
:102970002B612A620023382228462B60EA626B61B1
:1029800001F062FB384601F0BBFB354654B1042030
:1029900001F0F4FB20B1287801F0EAFB6E1C35460B
:1029A000013CF3E7FFF7CAFE204601F071FB204629
:1029B000F8BD4FF0FF30F8BDB4CB00202DE9F04753
:1029C00011F0FF0E80460C469146C3F30726DFB296
:1029D0001AD12EB1360201F580753544704602E0F9
:1029E0004A46214642E001F5807A0A1B55454A4491
:1029F00006D04FF480734046FFF79EFF5146F2E742
:102A0000A11909EB06022FE0CEF10005EDB25EB987
:102A1000BD42E5D277442B46FFB2FFF78DFF3B4620
:102A200009EB0502611921E0C5EB030A2C442B4692
:102A30005FFA8AF704F580760AF47F4AFFF77CFF95
:102A40004D445644214601F580790A1BB1452A447C
:102A500006D04FF480734046FFF76EFF4946F2E719
:102A60000AEB040105EB0A022FB13B464046BDE8E4
:102A7000F047FFF761BFBDE8F08700002DE9F047A0
:102A80000C4617461E4600284ED00968D0F804E0D0
:102A9000714549D3256881681D4471448D4243D8EE
:102AA0000168002934D123689B070ED0256805F002
:102AB0000305C5F10405EDB22A4639462046FFF765
:102AC000C7FD00283AD1761B2F44DFF888904FEAE3
:102AD000960A0025554507D1A900721A20463944A7
:102AE000BDE8F047FFF7B4BD23684B45F4D857F86D
:102AF00025802068414600F067FF092817D1236828
:102B00001B68984516D12368043323600135E1E73B
:102B1000022912D121680A48FFF750FF70B92368D3
:102B20001E442660BDE8F0870648BDE8F0870648E9
:102B3000BDE8F0870548BDE8F0870548BDE8F087A7
:102B4000A8CB0020CFE5FFFFA5E5FFFFC7E5FFFF0E
:102B50009CE5FFFFFCFF0F0838B5154C054601202A
:102B600001F096FAFFF7A0FD204601F03DFA4FF480
:102B7000005323624FF48073A3624FF48063636257
:102B800000232361236020462023E36201F05CFAE6
:102B9000284601F0B5FA022001F0F0FA0028FAD038
:102BA000FFF7CCFD002001F073FA002038BD00BF14
:102BB000B4CB00202DE9F8430C461546002875D00B
:102BC00042688A4272D883681344013BAB426DD39A
:102BD0000368002B5AD10846FFF7E0FD0646284659
:102BE000FFF7DCFDDFF83081DFF830910746B742B0
:102BF00052D3C6B1082E1AD0102E1BD0182E1CD0BE
:102C0000202E1DD0282E1ED0302E1FD0382E20D0A2
:102C1000402E21D0482E22D0502E23D0582E04BF33
:102C200045464C4620E0244D4FF000641CE0234D07
:102C3000234C19E0234D244C16E0244D244C13E082
:102C4000244D254C10E0254D254C0DE0254D264CFE
:102C50000AE0264D264C07E0264D274C04E0274D80
:102C6000274C01E0274D284C2346AB4209D853F8A6
:102C7000042B0132F9D00221304600F06FFE092802
:102C800001D10836B3E72148BDE8F883022B10D103
:102C90000C0B2D0BA54202D20020BDE8F8832003C7
:102CA000FFF75AFF0028EED10134F3E71848BDE8DA
:102CB000F8831848BDE8F883FF3F0008FF7F00084D
:102CC00000400008FFBF000800800008FFFF000868
:102CD00000C00008FFFF010800000108FFFF030813
:102CE00000000208FFFF050800000408FFFF0708B6
:102CF00000000608FFFF090800000808FFFF0B0896
:102D000000000A08FFFF0D0800000C08A5E5FFFF02
:102D1000CFE5FFFF9CE5FFFFFEFF0F0800000E0858
:102D200010B500200C4601F0FBF9002001F0DCF9A1
:102D300011484FF4005303624FF0406303600023D7
:102D400043624FF4807383624FF0807303619F236B
:102D5000C36201F079F9094B1B68611EDA1C13F894
:102D6000010B01F8010F9342F9D101F0F9F90020AC
:102D700001F08EF9002010BDB4CB0020BC63002010
:102D80000023400801D00133FBE7184670470000DC
:102D90002DE9F04704468AB08A461F460121C368E0
:102DA000806816469847206A94F844300179009369
:102DB00000231A460068FFF7EBFB206994F84030C7
:102DC0000179009300231A460068FFF7E1FB606970
:102DD00094F841300179009300231A460068FFF708
:102DE000D7FBA06994F842300179009300231A467A
:102DF0000068FFF7CDFBE06994F843300179009358
:102E000000231A460068FFF7C3FB606A94F8453058
:102E100001790093002201230068FFF7B9FB606A83
:102E2000FFF770FA03A801F0D6F8002510234FF041
:102E300001094FF4807850460393CDF81090059522
:102E4000CDF81880FFF79CFF63683B4C089301386E
:102E5000079003A8099501F0D5F8204601F0C4F8C1
:102E60004FF40053236220464FF08043A360C4F820
:102E70002880E5616560E56001F0B6F8484601F03C
:102E800007F94F4512D0377202A93046FFF748FFC5
:102E900000284ED19DF809309DF808201B0203EB55
:102EA00002439DF80A201344336042E0FFF7FCFB25
:102EB0004FF08073204623616562E561C4F8288085
:102EC0002560E762656101F0BFF81C4B40221A6281
:102ED000202001F053F905460028F9D1102001F017
:102EE000F7F8402108462A4601F0DEF8012001F0FB
:102EF00027F9284601F00CF94FF0006323604FF0EA
:102F0000807323610C4865620523E36201F09CF83D
:102F1000082001F033F90028FAD0082001F038F930
:102F2000022001F035F9202001F028F90028FAD11B
:102F3000A9E70AB0BDE8F087B4CB0020001000A0DC
:102F400010B590B1046834B900F0C2FCF32000F071
:102F5000CDFC204610BD022C09D18168054A0648E7
:102F60000123BDE81040FFF713BF044810BD04481B
:102F700010BD00BFA8CB0020185B0020CFE5FFFFED
:102F80009CE5FFFF0E4B984205D853F8502C114397
:102F900043F8501C70470B4B984204D80A4AD36838
:102FA0001943D1607047094B9842A3F1580395BF6C
:102FB0009A68DA681143114394BF9960D9607047E9
:102FC00058600240B860024000600240586402400D
:102FD000F8B5164642681D4604460F4603688AB196
:102FE000196B18680A6842F480720A6040F2255131
:102FF00000F0E9FF2368012240F22551186800F033
:10300000C6FF05E01A6BC661136823F48073136072
:1030100023681A6CD96B186B1143FFF7B3FF206854
:10302000026B00685660D760136843F001031360B9
:103030004021012200F0A2FF35B1294604F1080029
:10304000BDE8F84001F002B92846F8BD094B9842A6
:1030500002D853F8580C7047074B984202D853F8DF
:10306000B40C7047054B9842A3F1580394BF1868FD
:103070005868704758600240B86002405864024087
:103080002DE9F041044604F1100688461546FFF785
:10309000B3FA304601F013F9002C3AD0B8F1000F22
:1030A00037D0002D35D023689A6A596A9869114340
:1030B000FFF768FF20684FF0FF3783696762A561FB
:1030C0001A68006822F480721A6080215D60012213
:1030D000C3F80C8000F052FF23684021186800F00C
:1030E0006EFF2046394650F80C3B9A69136843F04E
:1030F0000103136001F0AAF82368186803885B06CF
:10310000FCD50022802100F039FF0023A361646A0E
:1031100000E0044C304601F0D4F8FFF783FA204673
:10312000BDE8F081CFE5FFFF2DE9F04F884685B07F
:1031300017469A46044600284CD000294AD0002A57
:1031400048D000F1080B0021584601F07FF8636871
:10315000002B37D04FF0000960680568C4F8209054
:103160006D08BD4228BF3D46E56101F0C2F88542C9
:1031700008D95146584601F069F8C4F81C90064633
:1031800010B128E0C4F81C90266A7F1B03AA02A98C
:10319000606801F0B8F8039B0299AB4228BF2B4648
:1031A0001A4640460393019301F06DFA019B606853
:1031B000ED1A1946984401F0B9F8002DE6D1002F18
:1031C000CAD108E053463A4641462046FFF700FF81
:1031D000064600E0024E304605B0BDE8F08F00BF65
:1031E000CFE5FFFF114B984216D0A3F54C43984210
:1031F00014D003F58063984212D003F5806398429F
:1032000010D003F5806398420ED003F544439842F2
:103210000CBF0520FF207047002070470120704739
:1032200002207047032070470420704700100140BF
:103230002DE9F047054696B00C4616461F46FFF7A7
:10324000DBF9002D00F05681002C00F05381002E98
:1032500000F050813FB1FB68002B00F04B813B68D0
:10326000002B00F047812068FFF7BCFF0023EB61D3
:10327000AB616B622B6295F828302C60824603F0BC
:10328000FF0813BB012105F10C0000F0D3FF012161
:1032900005F1080000F0CEFF05F1100001F004F880
:1032A000984B606813F80A900179CDF800900123DB
:1032B00042460068FFF76CF9A0680179CDF80090EC
:1032C000012342460068FFF763F9E06870B1F379C3
:1032D00003F0FD03012B09D18A4B017913F80A3061
:1032E000009300231A460068FFF752F9206968B17D
:1032F000F379023B012B09D8824B017913F80A308C
:10330000009300231A460068FFF742F97E4A7F4B7C
:1033100052F82A0053F82A300121984732790C23B9
:10332000ADF81630042A33680393737907D0032A63
:1033300008D1002B0CBF00224FF4805203E04FF461
:10334000805200E00022ADF81020B279002A0CBFB4
:1033500000224FF40052012BADF8122008D005D303
:10336000022B40F0C7804FF4806303E0002301E0AC
:103370004FF4C063ADF81430F379032B00F2BA8038
:10338000DFE803F00204070A002307E04FF40073AC
:1033900004E04FF4807301E04FF440732068ADF80F
:1033A000183000F013FD03A92068DFF8709100F0D9
:1033B00081FD6269564BA0699A42A3F520534FF6EE
:1033C000FF781A6B0CBF42F4001242F480021A63B9
:1033D0004FF480620D924FF4403211920322139207
:1033E00032790023042A0C9312931493159303BF8C
:1033F0004FF400630E934FF400530E930F9300F0BD
:1034000045F9E36907932368A069CDF82C8004335C
:10341000002607A9089340230A930996109600F006
:10342000BBF9206B00F032F9636B07932368206BC4
:10343000CDF82C80043307A9089309960A961096B4
:1034400000F0AAF994F92030A0695A094FF0010858
:1034500003F01F0308FA03F349F82230A36A616AF4
:103460001943FFF78FFD42469621A06900F0BEF98F
:10347000284B13F90A305A0903F01F0308FA03F323
:1034800049F822302B6832461868802100F076FD1A
:103490004146206800F066FD226893899BB243F0A4
:1034A0000803938193899BB243F00403938147B14E
:1034B0006F60EE6133463A68F9682846FFF788FD89
:1034C00013E094F93830206B5A0903F01F0308FA0F
:1034D00003F349F82230E16B236C1943FFF752FDE7
:1034E00042469621206B00F081F9012385F82830AF
:1034F000002400E0084CFFF795F8204616B0BDE820
:10350000F08700BFD45D0020A45D0020BC5D0020DA
:10351000006002409C5D0020CFE5FFFF00E100E07D
:1035200003681A681B6B118810B54FF6FF710446CB
:10353000406811805A6803689B1A8360E36953B13D
:1035400000F0D7FEE369984205D304F1080000F0CB
:103550009DFE0023E36110BD036810B50446986921
:10356000FFF774FD2368596A084204D09869FFF791
:1035700009FD0023636223689869FFF767FD2368EC
:10358000996A084205D09869FFF7FCFC4FF0FF33B9
:103590006362A3692BB104F10C00BDE8104000F098
:1035A00075BE10BD036810B50446186BFFF74EFDDD
:1035B0002368D96B084204D0186BFFF7E3FC0023A3
:1035C00023622368186BFFF741FD2368196C0842DA
:1035D00005D0186BFFF7D6FC4FF0FF332362E36989
:1035E0002BB104F10800BDE8104000F04FBE10BD43
:1035F00008B500F077FA002008BD000038B51021AA
:10360000124800F0D4FB00B3114C1048102100F018
:10361000D9FB2368012B18D825680C486B1C236044
:1036200000F0C3FB23680B4A022B22F815000CD1D3
:103630005388128808489B1A084A9BB21360036893
:103640001BB1BDE8384000F021BE38BD000C004081
:10365000E8CB0020F0CB0020ECCB0020E4CB002016
:1036600040F0BF60024B40F40030D860704700BFAC
:1036700000ED00E0044B1A6804280CBF42F004027D
:1036800022F004021A60704710E000E0036823F0A3
:10369000010303600023036043608360C360036130
:1036A00021234361294B984217D0294B98421BD0C4
:1036B000284B984220D0284B984225D0274B98423F
:1036C0002AD0274B98422ED0264B984232D0264BF8
:1036D000984236D0254B984203D13D2243F8082C1E
:1036E0007047234B984204D14FF4746243F8202C66
:1036F0007047204B984204D14FF4741243F8382C91
:1037000070471D4B984204D14FF0746243F8502C1F
:1037100070471A4B984203D1194A43F8642C7047FA
:10372000184B984203D1184A43F87C2C7047174B2A
:10373000984203D1164A43F8942C7047154B98428F
:1037400003D14FF03D5243F8AC2C7047106002405B
:1037500028600240406002405860024070600240B1
:1037600088600240A0600240B860024010640240DD
:103770002864024040640240586402407064024081
:103780003D00002088640240400F0020A0640240F9
:1037900000003D20B86402400268134B10B513408E
:1037A0000C68CA6814434A6914438A691443CA6995
:1037B00014430A6A14434A6A14438A6A14434A6BDC
:1037C00014438A6B2243134303604369CC6A23F09A
:1037D00007020B6B2343134343610B6943604B6840
:1037E00083608B68C36010BD3F801CF00B0611D551
:1037F00043694AB143F080038029436114D00368D0
:1038000001F01E0119430EE023F08003802943617B
:1038100004D17047802907D0002AF0D1036801F055
:103820001E0123EA010101607047000082790168EE
:10383000037970B542B3194A1568CE433540156017
:10384000546803F1804303F59E33344054601C6890
:103850002143196001689468CD432C409460D3687B
:103860002B40D3604379102B06D193680B439360B0
:10387000D3681943D16070BD03F1804303F59E33D3
:103880001A681143196070BD03F1804303F59E333C
:103890001A6822EA01021A6070BD00BF003C0140B4
:1038A000014B5861704700BF003C0140014BC0B262
:1038B00018707047003C0240044B1A6810B142F483
:1038C000807201E022F480721A607047003C02406E
:1038D000044B1A69002ABFBF034A5A6002F18832BA
:1038E0005A607047003C024023016745014BD86095
:1038F000704700BF003C02400E4BDA68D20310D480
:10390000DA68D1060FD4DA68D2050ED4DA6812F07C
:10391000E00F0CD1DB6813F0020F14BF0820092060
:10392000704701207047062070470220704707202B
:10393000704700BF003C024007B509238DF80730EF
:10394000FFF7DAFF8DF807009DF80730012BF7D05D
:103950009DF8070003B05DF804FB000070B5064653
:1039600041B1012908D002290CBF4FF400754FF472
:10397000407503E00D4601E04FF48075FFF7DCFF72
:1039800009281ED10F4C236923F440732361216958
:1039900029432161236923F0F8032361236943F05C
:1039A00002031E432661236943F480332361FFF73A
:1039B000C3FF236923F002032361236923F0F80383
:1039C000236170BD003C024070B505460E46FFF70E
:1039D000B3FF092813D10A4C236923F440732361F0
:1039E000236943F400732361236943F001032361D6
:1039F0002E60FFF7A1FF236923F00103236170BD4F
:103A0000003C024070B505460E46FFF795FF0928B9
:103A100011D1094C236923F4407323612369236185
:103A2000236943F0010323612E70FFF785FF2369AB
:103A300023F00103236170BD003C02402DE9F043F7
:103A40000F6800234FF0010E03260EFA03FC3CEA38
:103A5000070230D15A00056806FA02F4E443254013
:103A600005600D79D0F8008005FA02F9013D49EAB8
:103A70000808012DC0F8008011D885682C408460AA
:103A80004C798568944025438560446824EA0C0499
:103A900044608C7945689C40A4B22C434460C4685F
:103AA00006FA02F524EA0504C460CD79C46805FA73
:103AB00002F22243C2600133102BC6D1BDE8F0836D
:103AC00001F00703C90800EB810010B59B00046AF0
:103AD0000F21994024EA01010162016A9A400A43D8
:103AE000026210BD024B4AF6AA221A60704700BF5C
:103AF00000300040054A136843F002031360044A93
:103B0000136943F00403136130BF70470070004035
:103B100000ED00E0034B5B68034214BF012000206E
:103B2000704700BF00700040024A136843EA8000FB
:103B30001060704700700040024B00221A7018702D
:103B4000704700BF0238024010B5029C40EA046092
:103B5000039C40EA047001435B08013B41EA821286
:103B600042EA0340014B586010BD00BF00380240DC
:103B7000014B1860704700BF60004742034A9368DA
:103B800023F0030318439060704700BF00380240E1
:103B9000024B986800F00C00704700BF00380240EC
:103BA000034A936823F0F00318439060704700BF06
:103BB00000380240034A936823F4E05318439060AE
:103BC000704700BF00380240034A936823F4604303
:103BD00043EAC00090607047003802402C4B9A685E
:103BE00002F00C0210B50C2A38D8DFE802F03737A3
:103BF000373707373737093737371E00254B2EE061
:103C00005968234A5B6811F4800F03F03F03516841
:103C100014BF204A204AB2FBF3F31D4A5268C1F395
:103C200088114B43C2F3014213E05968184A5B689C
:103C300011F4800F03F03F03516814BF154A164A70
:103C4000B2FBF3F3124A5268C1F388114B43C2F33B
:103C5000027201325200B3FBF2F300E00E4B0C4A49
:103C6000036093680D49C3F30313CC5C0368E3401E
:103C700043609468C4F382240C5D23FA04F48460E6
:103C80009268C2F342328A5CD340C36010BD00BF69
:103C90000038024080BA8C010024F400C463002084
:103CA000044B9A6B09B1104301E022EA00009863CB
:103CB000704700BF00380240044B1A6C09B1104332
:103CC00001E022EA00001864704700BF003802409B
:103CD000044B5A6C09B1104301E022EA0000586419
:103CE000704700BF00380240044B1A6A09B1104304
:103CF00001E022EA00001862704700BF003802406D
:103D0000044B5A6A09B1104301E022EA00005862EC
:103D1000704700BF003802404209012A074B01D119
:103D20001B6803E0022A0CBF1B6F5B6F00F01F00D3
:103D300023FA00F000F00100704700BF0038024095
:103D400007B5002301933120FFF7E6FF019B013304
:103D50000193019BB3F5A04F01D00028F3D031208F
:103D6000FFF7DAFF003018BF012003B05DF804FB55
:103D7000024A536F43F08073536770470038024024
:103D800001F0030301F0FC0101F1804101F59C31D8
:103D900010B59B008C680F229A4024EA02028A60C8
:103DA0008A6898401043886010BD006C7047038A91
:103DB000828911EA030092B203D0114214BF01209C
:103DC00000207047C94389B20182704708B5314B62
:103DD000984206D101211020FFF792FF0021102008
:103DE00038E02D4B984208D101214FF40030FFF705
:103DF0007BFF00214FF4003047E0284B984208D168
:103E000001214FF48020FFF76FFF00214FF4802045
:103E10003BE0234B984208D101214FF40020FFF7EB
:103E200063FF00214FF400202FE01E4B984208D181
:103E300001214FF48010FFF757FF00214FF480104D
:103E400023E0194B984209D101212020FFF758FFA8
:103E500000212020BDE80840FFF752BF134B9842D5
:103E600008D101214FF08040FFF73EFF00214FF0C5
:103E700080400AE00E4B98420BD101214FF00040E8
:103E8000FFF732FF00214FF00040BDE80840FFF788
:103E90002BBF08BD00100140004400400048004016
:103EA000004C0040005000400014014000780040E9
:103EB000007C00407FB5038ACA889BB223F440533C
:103EC0001343038283890E469BB223F4B05389883F
:103ED00023F00C0233890B4371890B439BB21343CC
:103EE0008381838AB2899BB223F440731343838214
:103EF00004466846FFF772FE194B9C4203D003F557
:103F000080639C4201D1039D00E0029DA38931683A
:103F100013F4004F4FF0190202FB05F214BF4D00DD
:103F20008D00B2FBF5F5A2896426B5FBF6F0000121
:103F30000109120406FB115307D5D9003231B1FB38
:103F4000F6F202F00702104306E01A013232B2FB29
:103F5000F6F303F00F03184380B2208104B070BD64
:103F600000100140838919B19BB243F4005303E070
:103F700023F400531B041B0C83817047838A9BB27C
:103F80000AB1194301E023EA01018182704701234C
:103F900010B5C1F342149C4201F01F0103FA01F174
:103FA00001D10C3003E0022C0CBF10301430036838
:103FB0000AB1194301E023EA0101016010BDC943C0
:103FC00089B201807047090A012303FA01F1C9434C
:103FD00089B2018070470023036043608360C3603F
:103FE0000361436183617047002343608360C36062
:103FF0000360036143618361C3610362436283625F
:10400000C36270470E4943690A6810B504681C43CF
:1040100083691C4322F07F4323F03003426823432B
:1040200043EA02630B608368C2684C681A43054B1D
:1040300023401343026943EA02434B6010BD00BFB3
:10404000001000A0FEF7E0FF90E80C001A43836820
:104050000D491A43C3681A4303691A4383691A4313
:10406000C3691A43036A1A43436A1A43836A1A43A9
:10407000C36A10B51A434C69044B23401343426989
:1040800043EA82434B6110BD001000A00000809005
:10409000044B1A6810B142F0010201E022F0010263
:1040A0001A607047001000A0084B10B59C68A40669
:1040B0000AD4986259621AB11A6842F4000202E006
:1040C0001A6822F400021A6010BD00BF001000A0A0
:1040D000044A93689B0604D4D36A1B0C1B04034355
:1040E000D3627047001000A0044A93689B0604D472
:1040F000136B1B0C1B04034313637047001000A0D9
:10410000024B9A68920658BF98617047001000A051
:10411000024B9A68920658BF18617047001000A0C1
:10412000064B9A68920607D41A6810B142F008024A
:1041300001E022F008021A60704700BF001000A0E2
:10414000064B9A68920607D41A6810B142F48002AE
:1041500001E022F480021A60704700BF001000A046
:10416000024A136843F0020313607047001000A076
:10417000014B1870704700BF201000A0034B9B68D4
:10418000034214BF01200020704700BF001000A0B0
:10419000014BD860704700BF001000A030B5104A36
:1041A000104C13783BB9194604F813100133082B4F
:1041B000FAD101231370002314F81350094905F0B4
:1041C000FF023DB9012401F8134001EB43030360F2
:1041D000104630BD0133082BEED14FF0FF3030BD1B
:1041E00014CC0020F4CB002030B5104A104C1378CA
:1041F0003BB9194604F813100133082BFAD10123F7
:104200001370002314F81350094905F0FF023DB95B
:10421000012401F8134001EB43030360104630BD55
:104220000133082BEED14FF0FF3030BD15CC00200C
:1042300004CC002013B5044601A8FFF7AFFF019B93
:1042400000205870236002B010BD000070B50468F3
:104250000D46A4B1FDF79EFF2E1863783BB9FDF71C
:1042600099FFB042F9D36B1CF7D0064870BD72B607
:104270006378013BDBB2637062B6002070BD024818
:1042800070BD00BFBEE5FFFFC2E5FFFF02683AB1A7
:1042900072B653780133DBB2537062B600207047B8
:1042A00000487047C2E5FFFF13B5044601A8FFF7B9
:1042B0009BFF019B00205870236002B010BD0020BE
:1042C000704700207047FDF765BF00000048704749
:1042D000B1E5FFFF00487047B1E5FFFF00487047B8
:1042E000B1E5FFFF0346C16002600020586098609E
:1042F000704702688368406813441B1AB3FBF2F0EE
:1043000002FB10307047C36870B5056844682E1B07
:104310001C4483680C603344B3FBF5F105FB113397
:10432000B34294BF13601660002070BD43680268FA
:104330001944B1FBF2F302FB1311416000207047F6
:10434000014B1868704700BF386400208A892DE946
:10435000F041054610070C4659D44B68002B02DC8F
:104360000B6C002B17DDE66AAEB102F4805200231D
:1043700092B22F682B600AB1606D15E0216A0123AB
:104380002846B047411C0FD12B686BB11D2B01D0C3
:10439000162B03D12F600020BDE8F081A38943F0E4
:1043A0004003A381BDE8F081A3895A0705D563685E
:1043B000C01A636B0BB1236CC01A00230246E66A75
:1043C000216A2846B047431CA38906D129681D29C4
:1043D0003AD8214ACA40D60736D500226260D904AD
:1043E0002269226004D5421C01D12B6803B96065A3
:1043F000616B2F600029CED004F14403994202D0B2
:10440000284600F06FF900206063BDE8F0810F6975
:10441000002FC0D093070E6808BF4B690F6018BF0C
:104420000023C7EB06088B6002E00744C0EB0808D6
:10443000B8F1000FAFDD43463A46216AA66A284626
:10444000B0470028F1DCA38943F04003A3814FF07B
:10445000FF30BDE8F08100BF0100402038B50B6996
:1044600005460C46DBB118B183690BB900F072F850
:104470000C4B9C4201D16C6808E00B4B9C4201D173
:10448000AC6803E0094B9C4208BFEC68B4F90C30FF
:104490002BB121462846BDE83840FFF757BF002022
:1044A00038BD00BFDC5E0020FC5E00201C5F0020E9
:1044B000014620B9044B0549186800F0B7B8044B11
:1044C0001868FFF7CBBF00BF405F00205D420020AF
:1044D00038640020014900F0A9B800BF5D42002007
:1044E000002310B504460360436083608181436606
:1044F000C281036143618361194608225C3000F088
:10450000E8F8054B6362054BA362054BE362054B7C
:104510002462236310BD00BFDD470020FF47002059
:10452000374800205B48002070B568234D1E5D436E
:104530000E4605F1740100F023F9044640B1002154
:1045400080E842000C30A06005F1680200F0C1F87C
:10455000204670BD836910B5044633BB8364C364D1
:104560000365124B124A1B688262984204BF012302
:10457000836100F01FF86060204600F01BF8A06027
:10458000204600F017F80022E06004216068FFF781
:10459000A7FF01220921A068FFF7A2FF0222122132
:1045A000E068FFF79DFF0123A36110BD405F00207D
:1045B000D5420020F8B51C4B1E68B369074613B9F5
:1045C0003046FFF7C7FF4836B4687368013B04D430
:1045D000B4F90C507DB16834F8E733680BB1366834
:1045E000F2E704213846FFF79FFF30600028F6D13C
:1045F0000C233B60F8BD4FF6FF73E3810123A381D9
:1046000065662560A560656025616561A561082214
:10461000294604F15C0000F05CF86563A563A564BD
:10462000E5642046F8BD00BF405F00202DE9F84357
:104630008046894600F14804002694B1A568676861
:10464000013F0CD4AB89012B07D9B5F90E300133EA
:1046500003D029464046C84706436835F0E724683A
:10466000EBE73046BDE8F88310B5013902449042CB
:1046700007D010F8013B11F8014FA342F7D0181BE7
:1046800010BD002010BD10B5431E0A44914204D055
:1046900011F8014B03F8014FF8E710BD884210B53F
:1046A00001EB020301D8421E0BE09842FBD28118B5
:1046B000D21AD34204D013F8014D01F8014DF8E7A6
:1046C00010BD994204D011F8014B02F8014FF8E7F0
:1046D00010BD02440346934202D003F8011BFAE7DF
:1046E0007047000038B50546002946D051F8043C13
:1046F0000C1F002BB8BFE41800F026FB1F4A1368FC
:10470000114613B96360146032E0A3420ED92268E7
:10471000A018834204BF18685B68636004BF121866
:1047200022600C6024E0A24203D813465A68002A93
:10473000F9D118681918A1420BD121680144581801
:104740008242196014D1106852685A60014419609D
:104750000EE002D90C232B600AE021686018824227
:1047600004BF10685268626004BF091821605C6071
:104770002846BDE8384000F0E8BA38BD1CCC00201F
:1047800070B5CD1C25F0030508350C2D38BF0C2560
:10479000002D064601DBA94202D90C23336046E016
:1047A00000F0D2FA234B1C681A462146A1B10B68CF
:1047B0005B1B0ED40B2B03D90B60CC18CD501EE025
:1047C0008C420DBF63684B686360136018BF0C4672
:1047D00015E00C464968E9E7174C23681BB93046D9
:1047E00000F0BAF820602946304600F0B5F8431CC6
:1047F00018D0C41C24F00304A0420DD1256030461B
:1048000000F0A3FA04F10B00231D20F00700C31AE7
:104810000ED05A42E25070BD211A304600F09CF88A
:104820000130EBD10C233360304600F08EFA0020CB
:1048300070BD00BF1CCC002018CC00200FB40A4B68
:1048400013B51C6824B1A36913B92046FFF782FE93
:1048500005AB049AA1680193204600F0EDFB02B07D
:10486000BDE8104004B070473864002038B5084BEC
:104870001C68054624B1A36913B92046FFF76AFEF8
:10488000A26829462046BDE8384000F08DBE00BF32
:104890003864002070B50E46054618B183690BB91F
:1048A000FFF758FEAB69AC6813B92846FFF752FE14
:1048B000224B9C4201D16C6808E0214B9C4201D103
:1048C000AC6803E01F4B9C4208BFEC68A3891B0740
:1048D00001D523693BB92146284600F045F910B1BE
:1048E0004FF0FF3070BD013EA36816F8011F013B79
:1048F000A36091B1002B04DAA269934206DB0A2976
:1049000004D023685A1C22601970EDE7224628461D
:1049100000F0C4F80130E7D1E2E7002B08DA2246C4
:104920000A21284600F0BAF80130D9D00A2070BD1B
:1049300023680A205A1C2260187070BDDC5E0020BB
:10494000FC5E00201C5F0020024B01461868FFF748
:10495000A1BF00BF3864002038B5064C00230546CF
:1049600008462360FBF7BAFE431C02D1236803B15B
:104970002B6038BD20CC00200CB430B5164B0C1E7B
:104980009DB01D6804DA8B232B604FF0FF301EE0D2
:104990004FF40273ADF8143014BF04F1FF33234613
:1049A000049307934FF6FF7302900690ADF816300C
:1049B000209A21AB02A92846019300F021FA431C5A
:1049C000BCBF8B232B6014B1029B00221A701DB058
:1049D000BDE8304002B070473864002010B50C4686
:1049E000B1F90E1000F016FE0028ABBF636DA3896D
:1049F0001B1823F48053ACBF6365A38110BD2DE960
:104A0000F0411F468B89DB0505460C46164605D549
:104A100002230022B1F90E1000F024F9A389B4F9A1
:104A20000E1023F48053A38132463B462846BDE84E
:104A3000F04100F087B810B50C46B1F90E1000F047
:104A400011F9431CA38915BF606523F4805343F417
:104A50008053A38118BFA38110BDB1F90E1000F0DF
:104A6000F1B810F8012B11F8013B012A28BF9A4236
:104A7000F7D0D01A704710B5034642B111F8014B78
:104A800003F8014B013A002CF7D11A4400E010BDA5
:104A9000934202D003F8014BFAE710BDF8B50F4678
:104AA0001446064618B183690BB9FFF753FD224B34
:104AB0009C4201D1746808E0204B9C4201D1B4684B
:104AC00003E01F4B9C4208BFF468A369A360A3895D
:104AD0001A0709D523693BB123682069181A63694D
:104AE0009842FDB20FDB08E02146304600F03CF86A
:104AF0000028F1D04FF0FF30F8BD21463046FFF7D7
:104B0000ADFC0028F6D1A368013BA36023685A1CC2
:104B100022601F706269431C934204D0A389DB07A3
:104B200007D50A2D05D121463046FFF797FC00280E
:104B3000E0D12846F8BD00BFDC5E0020FC5E00200E
:104B40001C5F002038B5074C054608461146002278
:104B500022601A46FBF7FEFD431C02D1236803B115
:104B60002B6038BD20CC0020324B70B51D68064646
:104B70000C4625B1AB6913B92846FFF7EBFC2E4B69
:104B80009C4201D16C6808E02C4B9C4201D1AC687E
:104B900003E02B4B9C4208BFEC68B4F90C309AB28E
:104BA00015071DD4D00602D4092232603AE051071D
:104BB00012D5616B41B104F14403994202D03046F1
:104BC000FFF790FD00236363A38923F02403A381EF
:104BD0000023636023692360A38943F00803A38152
:104BE00023694BB9A38903F42073B3F5007F03D085
:104BF0002146304600F06CF8A28912F0010305D07E
:104C00000023A36063695B42A36103E0920758BF7E
:104C10006369A36023695BB9B4F90C3003F08000C9
:104C200080B230B143F04003A3814FF0FF3070BD3C
:104C3000002070BD38640020DC5E0020FC5E002097
:104C40001C5F002038B5064C00230546084623604B
:104C5000FBF75AFD431C02D1236803B12B6038BD1A
:104C600020CC002038B5074C0546084611460022E6
:104C700022601A46FBF75BFD431C02D1236803B197
:104C80002B6038BD20CC002070B50E46B1F90E1057
:104C9000002990B014461D4606DA00232B60B38924
:104CA0001A060ED540230EE001AA00F0C5FC00282C
:104CB000F3DB029A02F47042A2F500535A425A41C1
:104CC0002A604FF480630020236010B070BD0000A4
:104CD0008B8973B59E0705460C4610D401AB6A4616
:104CE000FFF7D2FF009906462846FFF749FD68B94D
:104CF000B4F90C309A0522D443F00203A38104F1E5
:104D00004703236023610123636118E00D4BAB620D
:104D1000A389206043F08003A381009B6361019B12
:104D200020614BB1B4F90E10284600F097FC18B181
:104D3000A38943F00103A381A0893043A08102B07D
:104D400070BD00BFD5420020704770472DE9F04785
:104D50008E689E4282460C46914698463ED88A8985
:104D600012F4906F3AD0256809696F1A65690223B9
:104D700005EB450595FBF3F57B1C43449D4238BF8D
:104D80001D4653050FD52946FFF7FAFC064698B194
:104D90003A462169FFF777FCA38923F4906343F037
:104DA0008003A38113E02A4600F0BAFC064670B9DE
:104DB00021695046FFF796FC0C23CAF80030A389FE
:104DC00043F04003A3814FF0FF30BDE8F087266138
:104DD00065613E44ED1B2660A5604646464528BFFA
:104DE0004646324649462068FFF758FCA3689B1B9D
:104DF000A36023681E4426600020BDE8F087000001
:104E00002DE9F04F9DB0804603938B891C060D461B
:104E100016460DD50B695BB94021FFF7B1FC286040
:104E2000286118B90C23C8F80030CDE040236B612D
:104E30000023099320238DF82930DFF89CB130231B
:104E40008DF82A3037463C4614F8013B1BB9B7EBC6
:104E5000060910D003E0252BF9D02746F3E74B468F
:104E6000324629464046FFF771FF013000F0A78027
:104E7000099B4B4409933B78002B00F0A080002352
:104E80004FF0FF3204930793059206938DF8533049
:104E90001A930126052221784E4800F0F1FB671C89
:104EA000049B38B14B4A801A06FA00F0184304906C
:104EB0003C46EFE7D90644BF20228DF853201A075D
:104EC00044BF2B228DF8532022782A2A03D0079A38
:104ED00000210A200BE0039A111D12680391002A99
:104EE00010DA524243F00200079204900BE027468A
:104EF00001343B78303B092B03D800FB02320121FF
:104F0000F5E701B107923B782E2B1ED17B782A2B37
:104F10000AD1039B1A1D1B680392002BB8BF4FF0E8
:104F2000FF330237059310E000230593781C1946E0
:104F30000A24074601303A78303A092A03D804FB9C
:104F400001210123F5E703B10591032239782248B5
:104F500000F096FB40B14023CBEB000003FA00F0D9
:104F6000049B18430490013739781C488DF82810A9
:104F700006227E1C00F084FB88B1194B33B9039BD9
:104F8000073323F007030833039314E003AB0093C4
:104F90002A46144B04A94046AFF3008007E003AB58
:104FA00000932A460F4B04A9404600F0D7F9B0F110
:104FB000FF3F824603D0099B5344099342E7AB89E4
:104FC0005B0601D4099801E04FF0FF301DB0BDE849
:104FD000F08F00BF445F00204A5F00204E5F00203A
:104FE000000000004D4B00209368013B002B10B4E3
:104FF000936008DA9469A34202DBCBB20A2B02D198
:1050000010BCFFF74BBD1368581C10601970C8B274
:1050100010BC7047F8B506460F461446D518AC428A
:1050200008D03A4614F8011B3046FFF7DDFF431C59
:10503000F5D100E00020F8BD2DE9F04F9DB00C4601
:1050400017460393064618B183690BB9FFF782FA36
:105050007F4B9C4201D1746808E07E4B9C4201D199
:10506000B46803E07C4B9C4208BFF468A38918072E
:105070000CD5236953B10023099320238DF82930DF
:1050800030238DF82A30DFF8D4B144E02146304691
:10509000FFF76AFD0028EED04FF0FF30D5E0039A0D
:1050A000111D12680391002A80F28C80524243F055
:1050B00002000792049098F800302E2B00F08480B4
:1050C000032298F80010654800F0DAFA48B140234E
:1050D000CBEB000003FA00F0049B1843049008F1A6
:1050E000010898F800105E488DF82810062208F193
:1050F000010700F0C5FA002800F09580594B002BFD
:1051000040F08880039B073323F0070308330393A1
:10511000099B53440993B846454615F8013B1BB912
:10512000B8EB07090FD003E0252BF9D0A846F3E729
:105130004B463A4621463046FFF76CFF01307FD0A0
:10514000099B4B44099398F80030002B78D000233A
:105150004FF0FF3204930793059206938DF8533076
:105160001A930127052229783F4800F089FA05F1B2
:105170000108049B38B13C4A801A07FA00F0184332
:1051800004904546EEE7D90644BF20228DF853200F
:105190001A0744BF2B228DF853202A782A2A3FF47D
:1051A0007EAF079A00210A20A846013598F8003002
:1051B000303B092B03D800FB02320121F4E7002920
:1051C0003FF479AF079276E798F801302A2B0BD19C
:1051D000039B1A1D1B680392002BB8BF4FF0FF33CF
:1051E00008F1020805936BE70023059308F101001D
:1051F00019460A258046013098F80020303A092ADD
:1052000003D805FB01210123F4E7002B3FF458AF3D
:10521000059155E703AB00932246144B04A9304691
:10522000AFF3008007E003AB009322460F4B04A9C5
:10523000304600F093F8B0F1FF3F82467FF468AF4C
:10524000A3895B063FF528AF09981DB0BDE8F08F34
:10525000DC5E0020FC5E00201C5F00204A5F002016
:105260004E5F002000000000445F0020154E00202B
:105270002DE9F04791461F460A698B68DDF82080CA
:105280009342B8BF1346C9F8003091F84320064650
:105290000C4612B10133C9F800302368990642BFA9
:1052A000D9F800300233C9F80030256815F006053A
:1052B00010D104F1190A07E001235246394630465D
:1052C000C04701301AD00135E368D9F800209B1A95
:1052D0009D42F1DB94F843302268003318BF01236C
:1052E00092060FD5E1185A1C302081F84300224461
:1052F00094F8451082F84310023303E04FF0FF307A
:10530000BDE8F08704F1430239463046C04701301A
:10531000F4D02268D9F80050E36802F00602042AAB
:1053200008BF5D1B2269A3680CBF25EAE57500254F
:105330009342C4BF9B1AED184FF000091A344D4533
:1053400009D00123224639463046C0470130D5D026
:1053500009F10109F3E70020BDE8F0872DE9F043EA
:1053600017460A7E85B06E2A984606460C460C9B68
:1053700001F1430E00F0AE8011D8632A22D009D883
:10538000002A00F0BB80582A40F0CA8081F84520EE
:10539000834955E0642A1ED0692A1CD0C0E0732AD4
:1053A00000F0B08009D86F2A2ED0702A40F0B88063
:1053B0000A6842F020020A603EE0752A24D0782A6A
:1053C0003AD0ADE01A6801F14205111D1960136869
:1053D00084F84230A8E021681A6811F0800F02D0EA
:1053E000111D196008E011F0400F02F1040119606D
:1053F00002D0B2F9003000E01368002B3CDA2D2215
:105400005B4284F8432037E021681A6811F0800F6E
:1054100002D0111D196007E011F0400F02F10401E4
:10542000196001D0138800E01368227E5C496F2A5E
:1054300014BF0A2208221BE078225A4984F845202A
:105440002268186812F0800F00F104051D6003D176
:10545000550601D5038800E00368D00744BF42F039
:10546000200222601BB9226822F020022260102252
:10547000002084F8430001E049490A226568A560DC
:10548000002D08DB206820F0040020602BB9002DDF
:105490007DD175460CE0002B79D07546B3FBF2F058
:1054A00002FB1033CB5C05F8013D03460028F5D123
:1054B000082A0BD12368DA0708D5236962689A4263
:1054C000DEBF302305F8013C05F1FF35C5EB0E03C7
:1054D00023612EE008681A68496910F0800F03D034
:1054E000101D1860136808E010F0400F02F104006E
:1054F0001860136801D0198000E01960002323614F
:10550000754616E01A68111D196015686268002159
:10551000284600F0B5F808B1401B6060636804E0FD
:1055200004F1420584F8422001232361002384F81A
:105530004330CDF800803B4603AA21463046FFF7B2
:1055400097FE013002D14FF0FF3026E023692A4652
:1055500039463046C0470130F5D023689B0710D547
:10556000002504F1190907E001234A46394630466F
:10557000C0470130E7D00135E368039A9B1A9D428A
:10558000F2DBE068039B9842B8BF184605E00B7851
:1055900084F8423004F142058AE705B0BDE8F083A3
:1055A000555F0020665F002070B50D461446064624
:1055B00018B183690BB9FEF7CDFF134B9C4201D1A3
:1055C000746808E0114B9C4201D1B46803E0104BB1
:1055D0009C4208BFF468A368013B002BA3600CDA6F
:1055E000A269934202DBEBB20A2B06D1224629467E
:1055F0003046BDE87040FFF751BA23685A1C22605C
:105600001D70E8B270BD00BFDC5E0020FC5E0020B3
:105610001C5F002038B5074C05460846114600229D
:1056200022601A46FBF785F8431C02D1236803B1B8
:105630002B6038BD20CC002038B5074C0023054630
:10564000084611462360FBF762F8431C02D1236829
:1056500003B12B6038BD00BF20CC002038B5064C0C
:105660000023054608462360FBF756F8431C02D189
:10567000236803B12B6038BD20CC0020000000005F
:1056800001F0FF01102A2BDB10F0070F08D010F8F3
:10569000013B013A8B422DD010F0070F42B3F6D1F7
:1056A000F0B441EA012141EA014122F007047FF010
:1056B00000070023F0E80256083C85EA010586EA67
:1056C000010685FA47F5A3FA87F586FA47F6A5FAA3
:1056D00087F68EB9EED1F0BC01F0FF0102F00702AF
:1056E00032B110F8013B013A83EA010313B1F8D15A
:1056F0000020704701387047002D06BF354603383B
:10570000073815F0010F07D1013015F4807F02BF73
:10571000013015F4C03F0130F0BC0138704700BFC4
:10572000F8B5074615460E4621B91146BDE8F840C2
:10573000FFF726B81AB9FEF7D5FF2846F8BD00F0E6
:1057400015F885420ED929463846FFF719F8044660
:1057500050B131462A46FEF796FF31463846FEF7ED
:10576000C1FF01E03046F8BD2046F8BD51F8040CF9
:105770000028BEBF091851F8043CC018043870470F
:10578000312E300076332E3000454D5733323339C9
:105790005F31002020202020202020202000576181
:1057A0006974696E6720666F722074686520666927
:1057B0006C6520746F2062652073656E74202E2ED8
:1057C0002E202870726573732027612720746F2044
:1057D00061626F7274290D000A0A0D2053756363AC
:1057E00065737366756C6C79210A0D0D0A204E6124
:1057F0006D653A202573000A0D2053697A653A20B9
:1058000025732042797465730D0A000A0A0D496DEB
:105810006167652073697A652069732068696768C4
:105820006572207468616E206D656D6F7279210AF2
:105830000D000A0A0D566572696669636174696FC5
:105840006E206661696C6564210D000D0A0A416273
:105850006F727465642E0D000A0D5265636569767A
:1058600065206661696C6564210D0053656C656334
:105870007420526563656976652046696C650A0D1A
:10588000000A0D4572726F72207768696C6520544A
:1058900072616E736D697474696E670A0D000A0D2A
:1058A0005375636365737366756C6C790A0D000AD2
:1058B0000D4D58434849503E2000424F4F545550DB
:1058C00044415445000A0D5265616420426F6F7473
:1058D0006C6F616465722E2E2E0A0D00426F6F741C
:1058E0004C6F61646572496D6167652E62696E0017
:1058F0000A0D5570646174696E6720426F6F746C35
:105900006F616465722E2E2E0A0D00465755504465
:10591000415445000A0D52656164206170706C69E4
:10592000636174696F6E2E2E2E0A0D004170706CCB
:1059300069636174696F6E496D6167652E62696E36
:10594000000A0D5570646174696E67206170706C37
:1059500069636174696F6E2E2E2E0A0D00445249E0
:10596000564552555044415445000A0D4E6F20662D
:105970006C617368206D656D6F727920666F72203F
:105980005246206669726D776172652C2065786970
:1059900074696E672E2E2E0A0D000A0D5265616421
:1059A000205246206669726D776172652E2E2E0A2E
:1059B0000D00447269766572496D6167652E626992
:1059C0006E000A0D5570646174696E67205246203E
:1059D0006472697665722E2E2E0A0D005041525562
:1059E00050444154450033006964000A0D496C6C11
:1059F0006567616C207374617274206164647265A0
:105A000073732E0A0D000A0D506C65617365206971
:105A10006E70757420636F7272656374204D694394
:105A20004F20706172746974696F6E2069642E0A08
:105A30000D000A0D45726173696E672025732E2E65
:105A40002E0A0D000A0D526561642025732E2E2E3C
:105A50000A0D000A0D5570646174696E6720257324
:105A60002E2E2E0A0D00464C4153485550444154A9
:105A700045003400646576000A0D556E6B6F776ED5
:105A8000207461726765742074797065212045788F
:105A90006974696E672E2E2E0A0D000A0D44657614
:105AA000696365204E756D626572204572722120B2
:105AB00045786974696E672E2E2E0A0D000A0D4412
:105AC000657669636520457272212045786974693D
:105AD0006E672E2E2E0A0D00737461727400656E4F
