:020000040800F2
:1080000054910020F17604081D83000801820008C5
:108010001D8300081D8300081D8300080000000068
:10802000000000000000000000000000D18B0008EC
:108030001D83000800000000318C0008758C0008CA
:108040001D8300081D8300081D8300087584000837
:108050001D8300081D8300085D8400084784000814
:10806000318400081B840008058400081D83000873
:108070001D8300081D8300081D8300081D83000860
:10808000FD820008A58200081D8300081D830008EA
:108090001D8300081D8300081D830008EF8300086E
:1080A0001D8300081D8300081D8300081D83000830
:1080B0001D8300081D8300081D8300081D83000820
:1080C0001D8300081D8300081D8300081D83000810
:1080D0001D830008318200084D8200081D830008BE
:1080E000D98300081D8300081D8300081D83000834
:1080F0001D8300081D8300081D8300081D830008E0
:108100001D8300084DEE020819F800081D830008C1
:10811000000000000000000000000000000000005F
:108120001D830008C5820008E182000851EE0208A4
:108130001D83000800000000000000000000000097
:108140000000000000000000000000001D83000887
:108150001D8300086D8200088982000815820008CE
:108160001D8300081D8300080000000000000000BF
:1081700000000000000000000000000000000000FF
:10818000000000001D830008000000000000000047
:108190001D8300081D83000800000000000000008F
:1081A00000000000000000000000000000000000CF
:1081B0001D83000800000000000000001D8300086F
:0481C0001D83000813
:108200001EF0040F0CBFEFF30880EFF309808546E2
:1082100000F0A8BA684620F007018D4601B5034872
:1082200007F0CAF9BDE80140854670471C0A0020E6
:10823000684620F007018D4601B5034807F0BCF9F8
:10824000BDE8014085467047480A0020684620F096
:1082500007018D4601B5044B186807F0ADF9BDE87C
:1082600001408546704700BF04000020684620F0AA
:1082700007018D4601B5034807F0BAF9BDE8014092
:10828000854670471C0A0020684620F007018D468D
:1082900001B5034807F0ACF9BDE8014085467047D9
:1082A000480A0020684620F007018D4601B5044BBE
:1082B000186807F09DF9BDE801408546704700BF8A
:1082C00004000020684620F007018D4601B50348F0
:1082D00007F0B4F9BDE80140854670471C0A00204C
:1082E000684620F007018D4601B5034807F0A6F95E
:1082F000BDE8014085467047480A0020684620F0E6
:1083000007018D4601B5044B186807F097F9BDE8E1
:1083100001408546704700BF04000020684620F0F9
:1083200007018D4601B5014B5B68FEE700ED00E0FB
:10833000264B5B68684603F03F0320F00701103BC3
:108340008D46092B01B517D007D8072B0ED010D8B2
:10835000062B37D10122002329E0172B0FD0282B21
:1083600019D00A2B2ED11022042320E0022201234F
:108370001DE0042202231AE00822032317E0144818
:10838000202205234169114211D101330A2B4FEA02
:108390004202F7D10BE00E484FF480620A23416994
:1083A000114204D10133102B4FEA4202F7D10849A0
:1083B0004A61084A0C2101FB03235A6812B19868EC
:1083C0005B689847BDE801408546704700ED00E0D6
:1083D000003C0140200E0020684620F007018D4639
:1083E00001B5FFF7A5FFBDE8014085467047684627
:1083F00020F007018D4601B5FFF7EEFFBDE8014013
:1084000085467047684620F007018D4601B5FFF7A5
:10841000E3FFBDE8014085467047684620F007014C
:108420008D4601B5FFF7D8FFBDE80140854670478E
:10843000684620F007018D4601B5FFF7CDFFBDE886
:10844000014085467047684620F007018D4601B51A
:10845000FFF7C2FFBDE8014085467047684620F03F
:1084600007018D4601B5FFF7B7FFBDE8014085461E
:10847000704700BF684620F007018D4601B54FF4F4
:10848000800007F003FCBDE80140854670474FF4CB
:1084900023707047014B1844704700BFB0ED0308CC
:1084A000184B13B51868A8B9174B1B6833B3174896
:1084B00002F090F902F084F9154B019376230093B2
:1084C0000146144B144A15482CF034FF0F4802F0B3
:1084D000B5F913E0124C23781BB103F085F90023A2
:1084E000237000244FF4FA730E4A0F4900940F488A
:1084F00002F072FB02F090FC204600E00C4802B053
:1085000010BD00BF340D00203C000020A00D002055
:108510000A480408CDF0030862F003087DF0030860
:10852000C009002035850008D00C0020A8090020D3
:10853000A7E5FFFF08B50C4B1B6893F8A837022B83
:1085400006D0042B07D0012B0BD104F0B9F808E0BA
:1085500009F0CEF805E009F0CBF84FF0FF3004F059
:1085600021F8002008BD00BF340D0020134B1B680C
:1085700007B5ABB9124B1B68DBB1124802F02AF900
:1085800002F01EF9104B01938A23009301460F4B12
:108590000F4A10482CF0CEFE0A4802F04FF908E0CE
:1085A00083F8A81700220C490C4802F04BFB00206E
:1085B00000E00B4803B05DF804FB00BF340D002061
:1085C0003C000020A00D00200A4804083CF00308ED
:1085D00062F003087DF00308A1840008D00C00209D
:1085E000A7E5FFFF0D4B1868B0B190F831312BB102
:1085F000002380F831310A4B01221A7090F8303193
:10860000022B02BF0123064A80F830314FF00101EE
:1086100008BF1370FFF7AABF704700BF340D0020DA
:10862000C009002013B502F0B7FD0446B8B9114BDC
:108630001B68EBB1104802F0CDF802F0C1F80F4B07
:1086400001934323009301460D4B0E4A0E482CF034
:1086500071FE094802B0BDE8104002F0EFB802F028
:10866000A9FD0121204602B0BDE81040FFF77EBF02
:1086700002B010BD3C000020A00D00200A480408F4
:10868000A3F0030862F003087DF0030825498D4636
:108690001A4B1B4A9A60A3F55D4300225A601A6880
:1086A00042F001021A6004F0F1F904F025FA1548CD
:1086B0001549884205D0154A824202D0121A2CF080
:1086C000E3FC1348134A144C121A00212CF0DAFD73
:1086D00004F014FA00F0FAF9104BE41AA40800258B
:1086E0001E46A54204D056F8253098470135F8E7D4
:1086F00001F028FE014B0A4ADA6000BF00ED00E0FD
:10870000008000080000002030770408A80900203D
:10871000A8090020348E0020E8760408E8760408D2
:108720000400FA055491002082B00023009342F225
:108730000F71009AB2F57A7F0CD20193019A8A42A6
:1087400004D800BF019A01320192F7E7009A013282
:108750000092EEE7014B024ADA60FEE700ED00E02E
:108760000400FA052DE9F04F8FB0D0F800A0D0F842
:108770000490D0F80880C768066945698469D0F814
:108780001CB0714901A82DF049FB01A82DF0D8FBC0
:10879000411C01A804F00CFAEFF30583033B032B03
:1087A00017D8DFE803F002070C11684901A82DF083
:1087B00035FB14E0664901A82DF030FB0FE0654958
:1087C00001A82DF02BFB0AE0634901A82DF026FB40
:1087D00005E0EFF30582614901A82DF07DF801A8BD
:1087E0002DF0AEFB411C01A804F0E2F95C4901A8A0
:1087F0002DF014FB01A82DF0A3FB411C01A804F0EF
:10880000D7F95246574901A82DF066F801A82DF076
:1088100097FB411C01A804F0CBF94A46524901A834
:108820002DF05AF801A82DF08BFB411C01A804F093
:10883000BFF942464D4901A82DF04EF801A82DF090
:108840007FFB411C01A804F0B3F93A46484901A84E
:108850002DF042F801A82DF073FB411C01A804F093
:10886000A7F93246434901A82DF036F801A82DF0AA
:1088700067FB411C01A804F09BF92A463E4901A868
:108880002DF02AF801A82DF05BFB411C01A804F093
:108890008FF92246394901A82DF01EF801A82DF0C4
:1088A0004FFB411C01A804F083F95A46344901A842
:1088B0002DF012F801A82DF043FB411C01A804F093
:1088C00077F9304B30491A6801A82DF005F801A856
:1088D0002DF036FB411C01A804F06AF92B4B2C4902
:1088E0001A6801A82CF0F8FF01A82DF029FB411C03
:1088F00001A804F05DF9274B27491A6801A82CF05C
:10890000EBFF01A82DF01CFB411C01A804F050F95D
:10891000224B23491A6801A82CF0DEFF01A82DF094
:108920000FFB411C01A804F043F91E4B1E491A68B5
:1089300001A82CF0D1FF01A82DF002FB411C01A8D9
:1089400004F036F9FEE700BFE9F00308FAF0030887
:1089500005F1030813F103081DF1030829F10308C9
:108960003BF1030868F1030876F1030884F103087A
:1089700092F10308A0F10308AFF10308E3F1030843
:1089800008F2030838ED00E017F2030828ED00E0D4
:1089900028F203082CED00E039F2030830ED00E086
:1089A0004AF203083CED00E05BF20308074A08497D
:1089B00013681844884289BF064B10600C224FF0A0
:1089C000FF308CBF1A601846704700BF00000020BF
:1089D000F8FF0320308E002000B58BB068462CF0E5
:1089E0009FFC0749074B0848079A82605B1A9A1A4E
:1089F000C260019A80E80C000BB05DF804FB00BF78
:108A000054910020F8FF0320C40900204FF0FF30EC
:108A100070474FF400534B6000207047022808B5A0
:108A200005D92CF021F809230360002008BD01209E
:108A300008BD0020704710B5144628B94FF0FF3329
:108A400003F020FE204610BD2CF00EF80923036031
:108A50004FF0FF3010BD0138012810B5144606D97B
:108A60002CF002F8092303604FF0FF3010BD002006
:108A700003F0F6FD204610BD134B102283F80323AC
:108A8000202283F83123302283F83B236021702297
:108A900083F8471383F8452383F8392383F8261393
:108AA00083F8102383F81123E02283F8062383F848
:108AB000072383F8082383F8092383F80A2383F81C
:108AC000172383F82823704700E100E07FB50321D6
:108AD0001A2003F029FC1A2003F042FC042119207B
:108AE00003F022FC192003F02DFC00211D2003F0CF
:108AF0001BFC00211E2003F017FC0F238DF808300B
:108B00000D4B049341F2883303930C4B009302AB5B
:108B10000ECB002001F0C6FB04F0A2F9002004F007
:108B2000A3F904F0C5F900221146104607B05DF81C
:108B300004EB04F0C8B900BFE585000825860008ED
:108B400010B11A2003F00CBC1A2003F0FBBB10B1CB
:108B5000192003F005BC192003F0F4BB08B51D2053
:108B600003F01AFC30B91E2003F016FC80F001005F
:108B7000C0B208BD002008BD4FF0100383F3118878
:108B8000BFF36F8FBFF34F8FFEE70000064800680A
:108B9000006880F3088862B661B6BFF34F8FBFF3F9
:108BA0006F8F00DF00BF000008ED00E04FF0807322
:108BB00040F8043C21F00101044B40F8081C40F847
:108BC0000C3C40F8202C4038704700BF798B0008DF
:108BD000074B19680868B0E8F00F80F30988BFF305
:108BE0006F8F4FF0000080F311884EF00D0E70472C
:108BF000840B00204FF0100383F31188BFF36F8FB5
:108C0000BFF34F8F024A136801331360704700BFF0
:108C100008000020034A1368013B13600BB983F37B
:108C200011887047080000200000000000000000CC
:108C3000EFF30980BFF36F8F0D4B1A6820E9F00F37
:108C400010602DE908404FF0100080F3118800F00B
:108C5000EBFB4FF0000080F31188BDE80840196875
:108C60000868B0E8F00F80F30988BFF36F8F704792
:108C7000840B002008B54FF0100383F31188BFF375
:108C80006F8FBFF34F8F00F045FA18B1034B4FF0D1
:108C900080521A60002383F3118808BD04ED00E0C0
:108CA000034B044A1A60072243F8042C704700BFA4
:108CB00014E000E0FF76010008B5094B1A6842F4A1
:108CC0007F021A601A6842F07F421A60FFF7E8FFDD
:108CD000044B00221A60FFF759FFFFF74DFF00BF5A
:108CE00020ED00E008000020F8B51D4B1D4D1E686A
:108CF0002B6804462868002283F8592004300F4668
:108D000000F0F3FF40B92B681748D96A02680123C5
:108D10008B4022EA03030360631C07D137B1296843
:108D200012480431BDE8F84000F0BBBF34442A6863
:108D30000C4B5460A64207D90D4A10681968BDE86B
:108D4000F840043100F0B9BF0A4A106819680431CC
:108D500000F0B3FF084B1A68944238BF1C60F8BD9E
:108D60008C0B0020840B0020DC0B0020C80B0020A3
:108D7000900B0020800A0020880B0020064A136810
:108D80001968064B11B94FF0FF3203E01268D26840
:108D9000D26852681A607047800A0020880B002051
:108DA0002DE9F84F9500804628460F4699460B9EC0
:108DB00000F04DFF8246002800F0AB805C2000F000
:108DC00046FF044688B1C0F830A02A465046A52187
:108DD0002CF058FAA5F1040A256BAA447B1E2AF050
:108DE000070A04F133020F3705E0504600F03EFF5A
:108DF0008FE09F4207D013F9011F02F8011F93F97A
:108E000000100029F5D10A9D092D28BF09254FF032
:108E1000000B271DE562E564384684F843B0C4F8CA
:108E200050B000F03BFFC5F10A0504F1180000F056
:108E300035FFC4F854B02461A561646284F858B069
:108E400084F859B04A4641465046FFF7AFFE2060CD
:108E500006B13460FFF7CEFE304B314E1A68DFF8B2
:108E6000EC8001321A60356815BB34601B68012B39
:108E700027D108EB0500143500F005FFC82DF8D107
:108E8000DFF8CC90274D484600F0FDFE284600F064
:108E9000FAFE254800F0F7FE244800F0F4FE2448CE
:108EA00000F0F1FE234BC3F80090234B1D6008E057
:108EB000224B1B682BB93368DA6AE36A9A4298BF7F
:108EC00034601F4A1F49136801331360E26A636408
:108ED00001250B6805FA02F0034314200B6000FB28
:108EE0000280394600F0DDFEFFF794FE134B1B684D
:108EF00063B13368DA6AE36A9A4207D2124B4FF0E1
:108F000080521A60BFF34F8FBFF36F8F2846BDE8C2
:108F1000F88F4FF0FF30BDE8F88F00BFAC0B00209A
:108F2000840B0020B00B0020940B00206C0B002061
:108F3000C80B0020800A0020900B0020840A00202B
:108F4000A80B0020DC0B002004ED00E0A40A0020A8
:108F50008C0A002070B50446244DFFF74BFE04B97F
:108F60002C68261D304600F0C0FE60B9E06A204B38
:108F7000142242439B5833B91E4901230A68834097
:108F800022EA03030B60A36A1BB104F1180000F08E
:108F9000ACFE194A1368013313602B689C4208D158
:108FA0003146164800F07DFE154A13680133136000
:108FB0000BE0144A206B1368013B136000F056FE6F
:108FC000204600F053FEFFF7D9FEFFF723FE0E4BBD
:108FD0001B6853B12B689C4207D10C4B4FF0805259
:108FE0001A60BFF34F8FBFF36F8F70BD840B0020EB
:108FF000A40A0020DC0B0020A80B00206C0B002032
:10900000800B0020AC0B0020840A002004ED00E05F
:1090100038B5144B1B68984205461DD0FFF7EAFD92
:109020006C69FFF7F7FD104B1B689C4216D00F4B85
:109030001B689C4212D00E4B9C4205D1AB6A002BA0
:1090400014BF0220032038BD0A4B9C4208D0002CDC
:109050000CBF0420012038BD002038BD022038BDDF
:10906000042038BD840B0020800A0020900B0020D3
:10907000C80B00206C0B002013B5134B0193002488
:1090800000942346782211491148FFF789FE0128F0
:1090900018D100F089FC012814D14FF0100383F39C
:1090A0001188BFF36F8FBFF34F8F0A4B4FF0FF3222
:1090B0001A60094B1860094B1C6002B0BDE81040F3
:1090C000FFF7FABD02B010BDC40B002064F6030820
:1090D00039930008880B0020840A00208C0B0020A4
:1090E000024A136801331360704700BF880A0020EA
:1090F000014B1868704700BF8C0B0020014B1868AB
:10910000704700BF8C0B0020014B1868704700BFF0
:10911000AC0B00203A4B1B682DE9F74F002B2FD1E9
:10912000384B1C6801341C605CB9374A374B1168F6
:1091300018681060364A1960136801331360FFF72E
:109140001DFE344D01952B68334E344F9C424FF039
:10915000000B0BD3DFF8B080DFF8CC90D8F80020FC
:109160001268A2B9019B4FF0FF321A603A68D16AC7
:1091700014224A43B258022A28BF4FF0010B34E0B0
:10918000274A1368013313604FF0000B2DE0D8F825
:109190000020D268D56869688C4202D2019B1960B0
:1091A000E4E705F1040A504600F09FFDA96A19B1F1
:1091B00005F1180000F099FDE86AD9F800100123C4
:1091C00003FA00FE4EEA01014FF0140EC9F8001038
:1091D0000EFB0060514600F064FD3868E96AC26A1F
:1091E000914228BF4FF0010BB8E70E4A1268002ADF
:1091F00018BF4FF0010B584603B0BDE8F08F00BF19
:10920000880A00208C0B0020800A0020900B002090
:109210007C0A0020880B0020A40A0020840B002078
:10922000A00A0020E00B0020DC0B00202DE9F84311
:10923000FFF7E0FC2B4B1A68013A1A601C680CB16E
:10924000002449E0284B1B68002BF9D0DFF8B090D0
:10925000264FDFF8B080D9F8003003B3D9F80C30CE
:10926000DC68261D04F1180000F03FFD304600F0D8
:109270003CFDE26A3B68012505FA02F114200B432C
:1092800000FB028031463B6000F00BFD184BE26AA8
:109290001B68DB6A9A4224BF164B1D60DBE70CB1EA
:1092A000FFF76CFD144B1C681D4644B1114E01279D
:1092B000FFF730FF00B13760013CF9D12C600D4B56
:1092C0001B68002BBCD00D4B4FF080521A60BFF3CF
:1092D0004F8FBFF36F8F0124FFF79CFC2046BDE842
:1092E000F88300BF880A0020AC0B0020DC0B0020B4
:1092F000840B0020E00B0020A00A002004ED00E019
:10930000940B0020A40A002008B540B9094B4FF087
:1093100080521A60BFF34F8FBFF36F8F08BDFFF706
:10932000DFFE0021FFF7E0FCFFF780FF0028EDD013
:1093300008BD00BF04ED00E080B5184D2E46184F63
:109340002B68F3B1FFF7CCFE3C68FFF76FFF002CF2
:10935000F6D0FFF74FFC124BDB68DC68201D00F0F5
:10936000C4FC104A1368013B13603368013B33604F
:10937000FFF750FC206B00F079FC204600F076FCF3
:10938000DEE7094B1B68012BD9D9084B4FF08052FF
:109390001A60BFF34F8FBFF36F8FD0E7800B0020B1
:1093A0006C0B0020AC0B0020A40A002004ED00E0B0
:1093B00070B50446FFF794FEFFF72AFE022827D176
:1093C000261D304600F091FCFFF714FCA36A33B170
:1093D00004F1180000F089FC012384F85930FFF7EC
:1093E00019FC0D49E26A0B68012505FA02F00343F6
:1093F0000B600A4B142000FB0230314600F051FC98
:10940000074BE26A1B68DB6A9A4284BF054B1D600A
:10941000FFF70CFF002070BDDC0B0020A40A002029
:10942000840B0020E00B00201D4B1A681D4B70B50B
:1094300012B101221A6070BD1B4C1A6023681B6BAD
:109440001A68B2F1A53F0BD15A68B2F1A53F07D116
:109450009A68B2F1A53F03D1DB68B3F1A53F04D010
:1094600020682168343101F0DAFA104B1B68B3FA36
:1094700083F3DBB20E49C3F11F03142000FB03F298
:109480008D1808326E6876686E600A44964204BF92
:1094900072686A6000FB03135B68DB68236070BD61
:1094A000880A0020E00B0020840B0020DC0B002049
:1094B000A40A002010B5064B0C461968183100F0BC
:1094C000FCFB20460121BDE81040FFF70DBC00BFAA
:1094D000840B002038B5084B0D4619681446183126
:1094E00000F0DFFB002C21460CBF28464FF0FF3078
:1094F000BDE83840FFF7F8BB840B0020C36870B5A7
:10950000DC6804F11805284600F0EFFB114B1B68DE
:1095100083B9261D304600F0E8FB0F49E56A0A686A
:109520000123AB4013430B600C4B1420314600FB6E
:10953000053001E00A48294600F0B3FB094BE26A16
:109540001B68DB6A9A4283BF074B0120186000202A
:1095500070BD00BF880A0020DC0B0020A40A002098
:10956000940B0020840B0020E00B0020034B1B68B1
:109570000360034B1B684360704700BF7C0A0020F8
:109580008C0B002070B505460E46FFF733FB134BDE
:109590001868134B1A6892F8594024B11B680022CE
:1095A00083F8592015E033685A1C13D00D4A2968F6
:1095B000126891426A6801D090420AD2811A8B42A5
:1095C00007D9121A134433602846FFF7CFFF00244F
:1095D00000E00124FFF71EFB204670BD8C0B00202D
:1095E000840B00207C0A0020014B01221A60704786
:1095F000E00B00202DE9F0410C4617469846064640
:1096000010B91B4B1D6800E0054605F1340363608B
:10961000EB6A23612B6BE3616B6CA360237B25609A
:10962000032B07D1FFF75CFDAB6A0BB10223237359
:10963000FFF7FCFDEB6C6361B8F1050F4FF0000321
:10964000A36102D084F80C8003E03046FFF7E0FC11
:10965000207357B1296B0A46531A12F8010BA5283B
:10966000FAD09B082384BDE8F0812784BDE8F0810F
:10967000840B00202DE9F84F0D6881460C46924678
:1096800015B34B685B684B6001F10806B34204BF39
:1096900073684B604B68D3F80C8000254FF0240BA7
:1096A00063685B6863609E4204BFE36863606368ED
:1096B000DF680BFB0591534601223846FFF79AFFFE
:1096C000B84505F10105EBD12846BDE8F88F00004B
:1096D0002DE9F04705461746FFF702FD204B1B68B2
:1096E0008B4236D80026DFF88CA034464FF0240990
:1096F00006F1B40109FB045001225144FFF7BAFFFF
:10970000143E16F1C80F4FF024080444F0D1154B55
:109710000222196808FB0450FFF7ACFF124B044407
:109720001968022208FB0450FFF7A4FF0444042236
:109730000E4908FB0450FFF79DFF044408FB04504A
:1097400003220B49FFF796FF04441FB100233B603F
:1097500000E00024FFF76AFD2046BDE8F08700BF67
:10976000AC0B0020800A0020900B00206C0B002026
:10977000C80B0020A40A0020014B1868704700BFE6
:10978000840B0020054B1B6833B1054B1B68002B75
:109790000CBF02200020704701207047840A00207F
:1097A000880A00202DE9F0410446002838D01D4DDC
:1097B000C36A2A68D26A934232D282691A4E002A58
:1097C000A1BF2A68D26AC2F10A02826114274269E3
:1097D00007FB03639A4220D100F10408404600F0E1
:1097E00084FA124B48B9E06A4743F2592AB919681A
:1097F0000122824021EA02021A602A68D26AE262E9
:1098000001201C689040204318601420414600FB52
:109810000260BDE8F04100F044BA2B68DB6AC36225
:10982000BDE8F081840B0020A40A0020DC0B00209E
:10983000F8B5044608B90020F8BD036DC16AC26CD2
:10984000013B91420365F6D0002BF4D1051D28465B
:1098500000F04BFA104E114A50B9E76A14217943CF
:1098600073582BB910680123BB4020EA030313602F
:10987000E36C1068E362C3F10A01A161012404FAF8
:1098800003F108431060142000FB0360294600F038
:1098900008FA2046F8BD00BFA40A0020DC0B002017
:1098A000044B1A681AB119680A6D01320A65186802
:1098B000704700BF840B0020134B1B68984210B503
:1098C000044617D0FFF796F96369104A934208D00F
:1098D0000F4A934205D00F4A934202D00E4A934258
:1098E00002D1FFF797F905E00C490022881883425E
:1098F00002D1F6E7002010BD1432C82AF6D1FFF7D6
:1099000089F9012010BD00BF840B0020C80B002086
:109910008C0A0020B00B0020940B0020A40A002029
:10992000F8B50D4CFFF766F925688DB90B4F0C4E55
:10993000384600F0A8F9304600F0A5F9094B1F6041
:10994000094B2A460C2105201E6000F095FA206084
:10995000BDE8F840FFF75EB9100C0020E80B0020CE
:10996000FC0B0020E40B0020140C0020914208B5F1
:109970004160006106D8D21A83699A420DD2011D56
:10998000074B05E09A4201D2994206D2054B011DD0
:10999000186800F092F9002008BD012008BD00BF42
:1099A000140C0020E40B002007B5FFF7B9FF084BAB
:1099B000186850B1074B0193022300934FF4807253
:1099C000002305490548FFF7EBF903B05DF804FBF8
:1099D000100C0020180C002078F60308C99A000823
:1099E0002DE9F04180462C200F4616461D4600F01A
:1099F0002EF9044658B1FFF793FF069BC4F8008088
:109A0000A761E66125626362201D00F047F92046E8
:109A1000BDE8F0817FB50F4C0546206816461A4612
:109A2000A8B105290191029603950CDCFFF7AAFE67
:109A30000023022808BF089A206818BF1A4601A907
:109A400000F03EFA03E0002301A900F0CDFA04B0D3
:109A500070BD00BF100C00202DE9F743184E4FF0E9
:109A60000008374633681A680AB3DB68DC681D688B
:109A700004F10409484600F038F9636A2046984723
:109A8000E369012BEED1A3692B449D4206D26360AA
:109A900024614946386800F010F9E3E70023CDF867
:109AA00000802A4619462046FFF7B4FFDAE7054A48
:109AB000034910680860136003B0BDE8F08300BF7D
:109AC000E40B0020140C00202DE9F04786B0DFF8ED
:109AD00068A1DAF800301D681DB1DB68D3F800809A
:109AE00000E0A846504EFFF7FBFAFFF701FB336892
:109AF00098428146374603D2FFF7AEFF012400E0CB
:109B00000024C6F80090494E002C3AD105B3C14557
:109B100025D3FFF78BFBDAF80030DB68DD68281D02
:109B200000F0E3F8EB69012B0ED1A96943464A46E0
:109B300041442846FFF71AFF30B1009423464246BD
:109B400021462846FFF766FF6B6A284698471EE0C5
:109B5000374B1B681A68B2FA82F2520900E02246BB
:109B6000C9EB0801306800F040FBFFF75FFB70B9FC
:109B7000304B4FF080521A60BFF34F8FBFF36F8F9F
:109B800005E0FFF753FB02E0039B002B08DA0023FC
:109B90001A4603A9306800F087FA0028F4D196E746
:109BA000059C636913B1201D00F09FF8FFF7A0FA30
:109BB0003B689842054601D2FFF74EFF039A3D608D
:109BC000092AE4D80123934013F4047822D113F036
:109BD000C70F05D19B06DAD5204600F047F8D6E737
:109BE000A169049B2A4619442046FFF7BFFE0028BE
:109BF000CDD0636A20469847E369012BC7D1A2699B
:109C00000499CDF800800A44434641462046FFF7B8
:109C100001FFBCE70499A1612B462A46294420464E
:109C2000FFF7A4FEB3E700BF1C0C0020100C0020BF
:109C3000140C002004ED00E0E40B002010B50446F5
:109C4000FEF7D8FF246AFEF7E5FF204610BD10B5E9
:109C50000446FFF745FA20462AF01CFF0446FFF7AA
:109C6000E5FA0CB900F0DEFE204610BD10B5044642
:109C700040B1FFF735FA20462AF014FFBDE8104046
:109C8000FFF7D4BA10BD00F1080343604FF0FF3274
:109C9000C360036100238260036070470023036197
:109CA000704743684B609A688A609A68516099600F
:109CB000036808610133036070470A68531C30B5BC
:109CC00001D1036907E000F108035C682568AA4236
:109CD00001D32346F9E75A684A6091608B60596066
:109CE000036808610133036030BD4168826803691D
:109CF0008A60826851605968884208BF5A600022B1
:109D00000261186801381860704770B51546026C1A
:109D1000866B044632B905682DBB4068FFF788FDA5
:109D2000656027E065B980682BF0AEF9A268236C06
:109D300013446268A360934217D32368A36014E0BE
:109D4000C0682BF0A1F9236CE26821685B421A44D9
:109D50008A42E2603EBF62689B18E360022D06D132
:109D60003EB1013E03E0104604E0284602E0002038
:109D700000E030460136A66370BD034610B41A6C8D
:109D800008465AB1D9685C681144A142D96024BF21
:109D90001968D960D96810BC2BF076B910BC70472F
:109DA00070B50446FEF726FF94F8455004F12406EA
:109DB0006DB2002D0ADD636A43B13046FFF79EFBAA
:109DC00008B1FFF711FC013D6DB2F2E7FF2384F803
:109DD0004530FEF71FFFFEF70DFF94F8445004F1E5
:109DE00010066DB2002D0ADD236943B13046FFF73E
:109DF00085FB08B1FFF7F8FB013D6DB2F2E7FF23E9
:109E000084F84430BDE87040FEF704BF38B504461E
:109E10000D46FEF7EFFE206CE36B2268A260434321
:109E2000D1181B1A13446160E3600021FF23A16372
:109E300084F8443084F845307DB92369ABB104F12E
:109E40001000FFF75BFB80B10A4B4FF080521A60A5
:109E5000BFF34F8FBFF36F8F07E004F11000FFF7E0
:109E600012FF04F12400FFF70EFFFEF7D3FE0120DE
:109E700038BD00BF04ED00E0F8B506464843503059
:109E80000D461746FFF7E3FE044668B10DB92060A2
:109E900002E000F150030360E663256401212046DF
:109EA000FFF7B4FF84F84C702046F8BD10B50222CD
:109EB0000C460021FFF7E0FF00B1846310BD0000F5
:109EC0002DE9FF470026DFF8F8A0019204468946F5
:109ED0001F46B046FEF78EFEA26BE36B9A4201D39B
:109EE000022F1DD13A4649462046FFF70EFF054690
:109EF00020460AF009FE636A2BB104F12400FFF743
:109F0000FDFA08B908E03DB12D4B4FF080521A60C0
:109F1000BFF34F8FBFF36F8FFEF77CFE01204CE045
:109F2000019D1DB9FEF776FE284646E016B902A847
:109F3000FFF71CFBFEF76EFEFFF7D2F8FEF75AFEA6
:109F400094F84430FF2B08BF84F8448094F84530DF
:109F5000FF2B08BF84F84580FEF75CFE01A902A82C
:109F6000FFF710FB18BBFEF745FEA66BE56BFEF78F
:109F700051FEAE4215D1019904F11000FFF79AFA93
:109F80002046FFF70DFFFFF751F908B10126A1E7C1
:109F90004FF08053CAF80030BFF34F8FBFF36F8F7D
:109FA000F4E72046FFF7FCFEFFF740F9EEE7204616
:109FB000FFF7F6FEFFF73AF9002004B0BDE8F0879E
:109FC00004ED00E010B5024600210120FFF754FF28
:109FD000044638B1002343600360C3601A46194643
:109FE000FFF76EFF204610BDF8B504461746EFF3A5
:109FF00011864FF0100282F31188BFF36F8FBFF309
:10A000004F8F806BE26B904201D3022B1CD194F8EE
:10A0100045501A462046FFF778FE6DB220460AF0FA
:10A0200073FD6B1C0AD1636A63B104F12400FFF76E
:10A0300065FA38B137B10120386006E001356DB2FC
:10A0400084F84550012000E0002086F31188F8BD17
:10A0500038B50C46EFF311854FF0100383F31188E8
:10A06000BFF36F8FBFF34F8F826BC36B9A4216D2D1
:10A0700090F8453001325BB282635A1C09D1436AC1
:10A080005BB12430FFF73AFA38B134B101202060D7
:10A0900006E001335BB280F84530012000E000208B
:10A0A00085F3118838BD00002DE9FF474FF0000A05
:10A0B000DFF82491019204460F4698465646FEF773
:10A0C00099FDA56B3DB339462046E668FFF755FE7E
:10A0D000B8F1000F0BD12368013DA56313B9FFF759
:10A0E000DFFB6060236993B104F1100004E0636A50
:10A0F000E66063B104F12400FFF700FA38B1364B93
:10A100004FF080521A60BFF34F8FBFF36F8FFEF78F
:10A1100081FD01205CE0019D15B9FEF77BFD56E055
:10A12000BAF1000F02D102A8FFF720FAFEF772FD84
:10A13000FEF7D6FFFEF75EFD94F84430FF2B08BF14
:10A1400084F8446094F84530FF2B08BF84F84560DC
:10A15000FEF760FD01A902A8FFF714FA58BBFEF74D
:10A1600049FDA56BFEF756FDFDB9236833B9FEF72F
:10A1700041FD6068FFF716FBFEF74CFD019904F105
:10A180002400FFF797F92046FFF70AFEFFF74EF885
:10A1900010B14FF0010A92E74FF08053C9F8003038
:10A1A000BFF34F8FBFF36F8FF3E72046FFF7F8FD44
:10A1B000FFF73CF8EDE72046FFF7F2FDFFF736F832
:10A1C000FEF718FDA56BFEF725FD002DE1D1284611
:10A1D00004B0BDE8F08700BF04ED00E0FFF746BD26
:10A1E000806BB0FA80F04009704770B504460D46A8
:10A1F0001646FEF7FFFC94F84430FF2B04BF002303
:10A2000084F8443094F84530FF2B04BF002384F8D1
:10A210004530FEF7FFFCA36B2BB93246294604F10B
:10A220002400FFF757F92046BDE87040FFF7B8BD9E
:10A230000023C361836903B11847704738B50546E9
:10A24000044615F8080B02F0A7F870B92346144A23
:10A250002078012102F0ACF800F0B2FA0130E061A0
:10A260002846BDE8384000F03BBA00F0A9FAE3699F
:10A2700053B1C3F101031844322805DD63689842E5
:10A2800002DA636903B198472346054A2078022120
:10A2900002F08EF8284600F053FA0023E36138BD3F
:10A2A0003DA2000884B02DE9F047074609A880E8E0
:10A2B0000E00DFF85C809DF824600B9BDDF8289091
:10A2C0007D0108EB0504002163610C9BE161A36142
:10A2D000C4F80490304608F8056002F025F80A4AF0
:10A2E00005F10800234652F827204946404400F073
:10A2F00037FB064A234652F827203046BDE8F04790
:10A30000022104B002F054B80C000020200000200C
:10A31000200C002008B5FEF721FC10B102F02AFF46
:10A3200001E01EF0BFFC0020BDE80840FEF712BEB1
:10A3300010B5FFF783FC43681BB18068BDE810408F
:10A34000184710BD114B1B6807B5C3F10802012364
:10A3500093400F4A0F4913600F4B10481A684FF48F
:10A360007A73B3FBF2F30E4A13600E4B1A680E4B6E
:10A37000019302230093C2F38F020023FEF710FD26
:10A38000FEF77AFE002003B05DF804FB70F80308C6
:10A39000C40C0020A5F6030874F8030815A30008F0
:10A3A0003400002040000020C00C002037B50929EF
:10A3B00028BF09211546C1F10901069A01901C46E2
:10A3C000C9B20091079BC2F38F0229462046FEF7CF
:10A3D000E7FC10F1FF3018BF4FF0FF3003B030BD85
:10A3E00010B5044628B10068FFF766FA012802D0CC
:10A3F0002068FEF7AFFD002010BD10B50446FFF742
:10A40000BBF923681B1A5842584110BD2DE9F04F83
:10A4100093B00C460546FEF777FE00232B702423ED
:10A4200004905843FFF713FC002C064616DD214626
:10A43000484B494A28462BF001FA28462BF080FD6C
:10A44000241A002C054409DD2146444A28462BF0F5
:10A45000F5F928462BF074FD241A054428462BF004
:10A460006FFD241A002E71D00499DFF8F8B0002295
:10A470003046FFF72DF94FF0240800230490C24620
:10A480000593059A049B9A424BD2059B08FB0363F4
:10A4900006AF1B7B013BDBB2032B98BF1BF90320EC
:10A4A000059B0AFB036388BF002259680392384664
:10A4B0002BF0B4FC38462BF043FD039A20230E28E2
:10A4C00002DC3B540130FAE7059B0599DDF814E006
:10A4D0004FF0000907F8009008FB036308FB0E6EBD
:10A4E0001B6908FB0161C3F1090CDEF80830019318
:10A4F000098C00915FFA8CF3194938442BF0ECF980
:10A5000038462BF01DFDA0420FD9CDF814902E2215
:10A51000059B9C4205D9059BEA54059B0133059395
:10A52000F6E73046FFF7A2FB10E022463946284600
:10A530002BF0EEFD38462BF003FD241A28462BF0B5
:10A54000FFFC059B0133054405939AE7002013B0F7
:10A55000BDE8F08F182E0408B0F60308D7F60308FC
:10A5600069F6030855F7030808B50068FEF720FFF1
:10A57000002008BD10B5044608460021FFF796FCF0
:10A580002060B0FA80F04009404210BD08B5074B8A
:10A5900000681A68B1FBF2F200231946FFF784FD48
:10A5A0000128034808BF002008BD00BF3400002078
:10A5B000BEE5FFFF13B5044601F062FE01280ED18F
:10A5C00001A92068FFF744FD019B73B10A4B4FF0CE
:10A5D00080521A60BFF34F8FBFF36F8F05E00023E7
:10A5E0001A4619462068FFF76BFC10F1FF3018BFC0
:10A5F0004FF0FF3002B010BD04ED00E010B504468E
:10A6000020B10068FFF7EAFD00232360002010BDA1
:10A61000FEF7F0BAFEF7FEBA10B511460446002266
:10A620001846FFF729FC2060B0FA80F0400940424C
:10A6300010BD000073B504460D46164601F020FE1D
:10A64000012810D1002301AA29462068FFF7CCFC7D
:10A65000019B8BB10C4B4FF080521A60BFF34F8FB0
:10A66000BFF36F8F08E0094B20681A68B6FBF2F25F
:10A6700000232946FFF724FC10F1FF3018BF4FF0EC
:10A68000FF3002B070BD00BF04ED00E034000020D8
:10A69000074B006810B51C68B2FBF4F20023FFF70B
:10A6A00003FD10F1FF3018BF4FF0FF3010BD00BFA9
:10A6B0003400002010B504460068FFF78FFD00202D
:10A6C000206010BD10B50446FEF794FA2068FFF72D
:10A6D00087FD0446FEF79EFA201C18BF012010BD1E
:10A6E0001FB5044601F0CCFD0128246814D1FEF703
:10A6F00005FD00230093024603AB06212046FFF729
:10A7000089F9039B9BB10D4B4FF080521A60BFF348
:10A710004F8FBFF36F8F0AE0FEF7EAFC4FF0FF3375
:10A7200000930246002301212046FFF773F910F140
:10A73000FF3018BF4FF0FF3004B010BD04ED00E053
:10A740001FB5044601F09CFD012811D1002203AB86
:10A75000009208212068FFF75DF9039B8BB10C4B39
:10A760004FF080521A60BFF34F8FBFF36F8F08E036
:10A770004FF0FF33009300231A4603212068FFF7B0
:10A7800049F910F1FF3018BF4FF0FF3004B010BD91
:10A7900004ED00E007B54FF0FF33009300231A46A5
:10A7A00005210068FFF736F910F1FF3018BF4FF0B0
:10A7B000FF3003B05DF804FBFEF792BCFEF736BD38
:10A7C00008B5FEF795FC024B1B68584308BD00BF57
:10A7D0003400002013B50446B0B9124B1B6893B186
:10A7E0001148FFF7F7FFFFF7EBFF104B019340F223
:10A7F000E513009301460E4B0E4A0F482AF09AFDCE
:10A80000094800F01BF800BE00234FF0FF32194644
:10A810002068FFF749FC10F1FF3018BF4FF0FF3000
:10A8200002B010BD3C000020A00D002029F7030855
:10A8300040F703081DF703087DF0030813B504462D
:10A84000B0B9124B1B6893B11148FFF7C3FFFFF774
:10A85000B7FF104B01934FF4F973009301460E4B71
:10A860000E4A0F482AF066FD0948FFF7E7FF00BED1
:10A8700000231A4619462068FFF722FB10F1FF302B
:10A8800018BF4FF0FF3002B010BD00BF3C000020E9
:10A89000A00D002029F7030859F703081DF7030846
:10A8A0007DF0030813B50446B0B9104B1B6893B193
:10A8B0000F48FFF78FFFFFF783FF0E4B019340F226
:10A8C000D713009301460C4B0C4A0D482AF032FD79
:10A8D0000748FFF7B3FF00BE0120FFF773FB2060BE
:10A8E000B0FA80F04009404202B010BD3C000020A8
:10A8F000A00D002029F7030880F603081DF70308C0
:10A900007DF0030813B50446B0B90F4B1B6893B133
:10A910000E48FFF75FFFFFF753FF0D4B01934FF416
:10A92000FF73009301460B4B0B4A0C482AF002FDC3
:10A930000648FFF783FF00BE2068FFF74FFC0020AA
:10A94000206002B010BD00BF3C000020A00D002020
:10A9500029F7030870F703081DF703087DF00308C3
:10A96000F7B50D4617461E460446B0B9154B1B6891
:10A9700093B11548FFF72EFFFFF722FF134B01930A
:10A9800040F2772300930146114B124A12482AF0F5
:10A99000D1FC0D48FFF752FF00BE104B67601968ED
:10A9A0000F4BA66001220093B5FBF1F123460D4841
:10A9B000FFF716F82060B0FA80F04009404203B07B
:10A9C000F0BD00BF3C000020A00D002029F70308C7
:10A9D00095F603081DF703087DF0030834000020F6
:10A9E00031A300080A48040808B5054B1B68B0FBF2
:10A9F000F3F0002808BF0120FEF786FC002008BD08
:10AA00003400002010B504462068FEF755FF0128E9
:10AA100003D00A20FFF7E8FFF6E7002010BD084644
:10AA200000F020BA7047FFF712B9FFF71FB913B54E
:10AA3000041D4FF0FF3269462046FFF729FE00282B
:10AA4000F7D10198009B9847F3E707B50368009397
:10AA5000436840690193002269460430FFF7EAFD2C
:10AA600003B05DF804FB00002DE988481F4EDFF8B5
:10AA70008490B046D9F800101D481E4FFFF786FDA0
:10AA800034684FF0FF35A2463CB3D4F800B05D45C2
:10AA900028BF5D46FFF794FE8345A3681AD2D8F815
:10AAA00000209442E2680BD1012A336001D163682F
:10AAB0009847204629F0F6FF5446D8F8003009E0C0
:10AAC000012ACAF8083001D163689847204629F066
:10AAD000E9FF02E0A2461C46D6E7FFF771FEA84256
:10AAE0002BBF01232D1A3B603D60C3E7C80C00203B
:10AAF000CC0C002038000020F7B504461746002291
:10AB0000026044F8042F05460E4608220A492046F2
:10AB1000FFF782FD58B901950097084B084A314666
:10AB20002846FFF743FC20B12046FFF7C3FD4FF056
:10AB3000FF3003B0F0BD00BF87F703082FAA00085D
:10AB400094F7030830B51B4B1A6885B01C469AB1C0
:10AB50001948FFF73FFEFFF733FE184B0293184BDF
:10AB60000193542300930146164B174A17482AF0C5
:10AB7000E1FB1148FFF762FE0F234FF4006203214F
:10AB80001348FFF7B9FF054688B123687BB10A482F
:10AB9000FFF720FEFFF714FE612300930146094BE7
:10ABA000094A0C482AF0C6FB0348FFF747FE28462F
:10ABB00005B030BD3C000020A00D00200DF80308BA
:10ABC00014F80308C0F7030818F80308D3F70308BC
:10ABD000D00C00201DF80308F8B50E46194633685E
:10ABE000044617469BB100F1080503460A4A284669
:10ABF000FFF7B6FE68B9069B27606661636028466A
:10AC0000FFF76EFD38B12846FFF7C4FD01E00348A9
:10AC1000F8BD4FF0FF30F8BD4BAA0008C2E5FFFFBA
:10AC200038B505460830FFF7B5FD044628B901469A
:10AC3000182228462AF026FB01E04FF0FF34204678
:10AC400038BD0000036807B53BB18DE8060004304D
:10AC500000226946FFF7EEFC00E0024803B05DF811
:10AC600004FB00BFC2E5FFFFFFF7BEBE4FF47A73DF
:10AC70005843FFF7B9BEFFF7F9BFFFF7B5BE0000B5
:10AC800037B50E4D2C68ACB901210D48FFF772FCA9
:10AC900010B14FF0FF340EE04FF4006300930194C5
:10ACA000084B094A0521FFF781FB0028F1D1012358
:10ACB0002B6000E00024204603B030BDD80C0020FB
:10ACC000CC0C002069AA000860F80308154B1B682B
:10ACD00070B505460E462BB1102029F0DBFE044668
:10ACE00038B903E0FFF7CCFF0028F5D04FF0FF3074
:10ACF00070BDFFF765FD01230B4AE3600023A360ED
:10AD00001368284484E841000BB9146004E09A6891
:10AD10000AB11346FBE79C600448FFF74BFC002098
:10AD200070BD00BFD80C0020C80C0020CC0C002047
:10AD300038B50B4B1C68054624B163688B4206D0BE
:10AD4000A468F9E72846BDE83840FFF7BFBFFFF722
:10AD500037FD012328442060E360002038BD00BF98
:10AD6000C80C002038B5054B1C6805462CB123687B
:10AD7000616828469847A468F8E738BDE00C0020D1
:10AD800038B5054B9C6A05462CB123686168284696
:10AD90009847A468F8E738BDE00C002038B5054BAB
:10ADA0005C6805462CB12368616828469847A4680A
:10ADB000F8E738BDE00C0020084B2DE9F0419C6815
:10ADC00006460F4690463CB12568636842463946C0
:10ADD0003046A847A468F6E7BDE8F081E00C002003
:10ADE00038B5054BDC6805462CB1236861682846F8
:10ADF0009847A468F8E738BDE00C002038B5054B4B
:10AE00009C6905462CB12368616828469847A46868
:10AE1000F8E738BDE00C0020044B10B51C6A24B1E3
:10AE2000236860689847A468F9E710BDE00C00202B
:10AE300038B5054B5C6A05462CB123686168284625
:10AE40009847A468F8E738BDE00C0020044B10B523
:10AE5000DC6A24B1236860689847A468F9E710BDEC
:10AE6000E00C002038B5054B1C6B05462CB123685F
:10AE7000616828469847A468F8E738BDE00C0020D0
:10AE80002DE9F3411D4E074656F8204010200D468F
:10AE9000904629F0FFFDA8B9194B1B6843B3194828
:10AEA000FFF798FCFFF78CFC174B0193E12300930D
:10AEB0000146164B164A17482AF03CFA1148FFF78C
:10AEC000BDFC15E0002380E8200183601CB946F832
:10AED000270020460FE0226895420BD0A3682BB1D3
:10AEE0001C461B689D42F9D1002004E0A06001E0EF
:10AEF000094800E0184602B0BDE8F081E00C0020EF
:10AF00003C000020A00D00200A48040878F803083F
:10AF1000A0F803087DF00308B8E5FFFF38B5074C3B
:10AF2000054654F8250038B154F825309B6844F89C
:10AF3000253029F0B7FDF4E738BD00BFE00C002054
:10AF4000F0B5054687B0B8B98A4B1B68002B00F0F6
:10AF50000D818948FFF73EFCFFF732FC874B0193D8
:10AF6000792300930146864B864A87482AF0E2F906
:10AF70008148FFF763FCF9E003A801F05CF940F2B7
:10AF8000847205F1180103A801F058F9D5F8A42737
:10AF9000D5F8A01703A801F051F904A903A801F0FE
:10AFA0005BF9D5F8A427002102F29C72062001F07B
:10AFB00023FC044668B16F4B1B68002B00F0D48063
:10AFC0006D48FFF707FCFFF7FBFB6C4B01938523F4
:10AFD000BBE006AE40F29C7346F8040D2A463146AB
:10AFE000062001F05DFC044668B1624B1B68002B33
:10AFF00000F0BA806048FFF7EDFBFFF7E1FB5F4B25
:10B0000001938923A1E040F29C77D5F8A437D5F8C5
:10B01000A02705973146062001F042FC044668B19E
:10B02000544B1B68002B00F09F805348FFF7D2FB66
:10B03000FFF7C6FB514B01938D2386E0D5F8A4376B
:10B0400003F29C73059304AA02233146062001F003
:10B0500027FC044668B1474B1B68002B00F0848036
:10B060004548FFF7B7FBFFF7ABFB444B0193912338
:10B070006BE0D5F8A43703F29C7305930DF112022F
:10B0800002233146062001F073FCBDF81230002B7C
:10B0900066D0D5F8A427214602F29C72072001F061
:10B0A000ABFB044660B1334B1B68002B5CD03248CD
:10B0B000FFF790FBFFF784FB304B01939D2344E0A7
:10B0C00005903B462A463146072001F0E9FB04463D
:10B0D00060B1284B1B68002B46D02748FFF77AFB4E
:10B0E000FFF76EFB254B0193A1232EE0D5F8A43783
:10B0F000D5F8A02705973146072001F0D1FB04467B
:10B1000058B11C4B1B687BB31B48FFF763FBFFF771
:10B1100057FB1A4B0193A52317E0D5F8A43703F288
:10B120009C73059304AA02233146072001F0B8FB63
:10B130000446B8B10F4B1B68B3B10F48FFF74AFB89
:10B14000FFF73EFB0D4B0193A923009301460C4BE7
:10B150000C4A0D482AF0EEF80748FFF76FFB03E0B2
:10B160000A4804E0002002E0204600E0084807B05A
:10B17000F0BD00BF3C000020A00D00200A480408DC
:10B1800055F90308FEF803087DF00308A5E5FFFF65
:10B19000A7E5FFFF70470000014B1868704700BF2C
:10B1A000340D0020024B186808B1D0F8A007704792
:10B1B000340D002037B5B0B92F4B1B68002B57D08A
:10B1C0002E48FFF707FBFFF7FBFA2D4B0193B22345
:10B1D000009301462B4B2C4A2C482AF0ABF8274809
:10B1E000FFF72CFB44E02A4D40F29C7200212868B6
:10B1F0002AF048F82C68274904F118002AF00EFEBE
:10B20000002384F8303184F8313184F8ED3084F84B
:10B21000EE30214BC4F83831204B1B68C4F83C3168
:10B2200040F25A62FF2104F5A0702AF02BF8D4F8FE
:10B23000A417D4F8A007FFF7ADFF2868FFF780FE3A
:10B240000446B0B10C4B1B689BB10C48FFF7C2FA27
:10B25000FFF7B6FA0A4B0193C62300930146094B48
:10B26000094A0A482AF066F80448FFF7E7FA00E0BE
:10B270000B4C204603B030BD3C000020A00D002048
:10B280000A480408D6F80308FEF803087DF003080E
:10B29000340D002019F9030865213EA4300D00206B
:10B2A000A7E5FFFF2DE9F043D0F8A45789B00023AC
:10B2B0000693044605F29C7340F28470079329F0CC
:10B2C000E9FB0746B8B98E4B1B68002B00F01782CC
:10B2D0008C48FFF77FFAFFF773FA8B4B0193F32348
:10B2E00000930146894B8A4A8A482AF023F8854808
:10B2F000FFF7A4FA03E2284629F0CCFB0646B8B9CA
:10B300007F4B1B68002B00F0F1817E48FFF762FA4B
:10B31000FFF756FA7C4B0193F623009301467B4BD3
:10B320007B4A7C482AF006F87648FFF787FADDE189
:10B3300040F29C73224606A9062001F019FB40F258
:10B340009C75D4F8A437D4F8A027069506A9062042
:10B3500001F00EFB04F1180903A800F06CFF40F2A5
:10B360008472494603A800F069FFD4F8A427D4F8F2
:10B37000A01703A800F062FF04A903A800F06CFF67
:10B38000D4F8A4372B4407930DF11202022307A926
:10B39000062001F0EDFA182306933A4640F2847332
:10B3A00006A9072001F0E4FAD4F8A437069532463E
:10B3B00006A9072001F0DCFA03A800F03CFF40F2E8
:10B3C0008472394603A800F039FFD4F8A427314627
:10B3D00003A800F033FF05A903A800F03DFFD4F84F
:10B3E000A4372B4407930DF11602022307A9072067
:10B3F00001F0BEFABDF81030BDF814200546002B50
:10B4000000F08A80BDF81210002900F085808B4280
:10B4100040F082803AB1934205D1BDF8162012B1B6
:10B42000934200F0D480072001F050F90021C26857
:10B43000072001F0E1F9054670B1314B1B68002B84
:10B4400000F055812F48FFF7C5F9FFF7B9F92E4BEA
:10B45000019340F24913D8E0069040F29C732246D3
:10B4600006A9072001F01CFA054670B1244B1B68A1
:10B47000002B00F03C812348FFF7ACF9FFF7A0F95F
:10B48000214B019340F24D13BFE040F29C730693B1
:10B49000D4F8A027D4F8A43706A9072001F000FAB1
:10B4A000054670B1164B1B68002B00F02081154833
:10B4B000FFF790F9FFF784F9134B019340F2511312
:10B4C000A3E0D4F8A43703F29C7307930DF11202A2
:10B4D000022307A9072001F0E3F90546002875D0EB
:10B4E000074B1B68002B00F002810648FFF772F93A
:10B4F000FFF766F9044B019340F2551385E000BF56
:10B500003C000020A00D00200A48040826F903088A
:10B51000FEF803087DF00308002A00F09E80BDF8C5
:10B520001630002B00F099809A4240F0968040F24D
:10B530009C7842460021204629F0A4FE40F2847205
:10B540003946484629F0A0FDD4F8A427D4F8A0072E
:10B55000002129F097FED4F8A427D4F8A00731469B
:10B5600029F092FD062001F0B1F80021C268062002
:10B5700001F042F90546002840F083804346224608
:10B5800006A90620069501F08BF90546002840F033
:10B590008680D4F8A437D4F8A027CDF8188006A95F
:10B5A000062001F07DF90546002840F08580D4F89A
:10B5B000A43703F29C73079305AA022307A9062068
:10B5C00001F06EF90546002840F083800025D4F88C
:10B5D0003C21531C4C4B08BF00221A60D4F8382180
:10B5E0004A4B9A421CD02046FFF7E4FD0546B8B10D
:10B5F000474B1B68002B7AD04648FFF7EBF8FFF764
:10B60000DFF8454B019340F2651300930146434B2D
:10B61000434A444829F08EFE3E48FFF70FF966E0A2
:10B6200094F8EF30002B62D104F1F00104F5F660DC
:10B630002AF0F4FB04F5807104F5F8602AF0EEFBC3
:10B6400004F5887104F5FA602AF0E8FB04F59071BE
:10B6500004F5FC602AF0E2FB49E02046FFF7AAFD72
:10B6600005460028B2D02A4B1B68002B3FD0294842
:10B67000FFF7B0F8FFF7A4F8274B019340F21F1330
:10B68000C3E7234B1B68002B31D02248FFF7A2F8F9
:10B69000FFF796F8204B01934FF49873B5E71C4BD6
:10B6A0001B6823B31B48FFF795F8FFF789F81A4B7F
:10B6B00001934FF49A73A8E7154B1B68BBB115486B
:10B6C000FFF788F8FFF77CF8134B01934FF49C7356
:10B6D0009BE70F4B1B6853B10E48FFF77BF8FFF752
:10B6E0006FF80D4B01934FF49E738EE70E4D384665
:10B6F00029F0D8F926B1304629F0D4F900E00A4DF6
:10B70000284609B0BDE8F083300D002065213EA435
:10B710003C000020A00D00200A48040826F9030878
:10B72000FEF803087DF00308B8E5FFFF73B5274C6A
:10B73000236805464BB1D3F8A00708B129F0B2F948
:10B74000206829F0AFF90023236095B12946012034
:10B7500029F052F9064668B91D4B1B68002B32D000
:10B760001C48FFF737F8FFF72BF81B4B01934623D4
:10B7700012E02E4640F63401012029F03DF9206008
:10B78000A8B9134B1B68F3B11248FFF723F8FFF772
:10B7900017F8114B01934A23009301460F4B104AAF
:10B7A000104829F0C7FD0B48FFF748F80BE0C0F838
:10B7B000A067C0F8A45700F29C70FFF773F8034B22
:10B7C0001868FFF76FFD206802B070BD340D0020CF
:10B7D0003C000020A00D00200A4804083CF90308A2
:10B7E000FEF803087DF0030813B5B8B91F4B1B68BA
:10B7F000002B36D01E48FEF7EDFFFEF7E1FF1D4B94
:10B80000019340F27913009301461B4B1B4A1C48DD
:10B8100029F090FD1648FFF711F822E0194A1A4B5B
:10B82000186813680133C0F83C311360FFF788FBD8
:10B830000446B8B10D4B1B68A3B10D48FEF7CAFF13
:10B84000FEF7BEFF0B4B01934FF4BF73009301460D
:10B85000094B0A4A0A4829F06DFD0548FEF7EEFF3C
:10B8600000E00A4C204602B010BD00BF3C000020A2
:10B87000A00D00200A480408BBF80308FEF80308DE
:10B880007DF00308300D0020340D0020A7E5FFFFF8
:10B89000F8B5074604200D4600F018FF094C06468F
:10B8A00018220021206829F0EDFC2068B3680360AD
:10B8B000412303745523476043744582FFF794FF87
:10B8C0000020F8BD340D00202DE9F04F4F4B91F9C9
:10B8D00000208DB00B90186883185B7803F0030389
:10B8E000022B91F9013000EB030408BF203A647881
:10B8F00004F00304022C91F9024000EB040508BF98
:10B90000203B6D7805F00305022D91F9035000EB03
:10B91000050608BF203C767806F00306022E91F952
:10B92000046000EB060708BF203D7F7807F003079F
:10B93000022F91F9057000EB070E08BF203E9EF81C
:10B9400001E00EF0030EBEF1020F91F906E000EBEC
:10B950000E0C08BF203F9CF801C00CF0030CBCF19A
:10B96000020F91F907C000EB0C0808BFAEF1200EE2
:10B9700098F8018008F00308B8F1020F91F90880E7
:10B9800000EB080908BFACF1200C99F8019009F010
:10B990000309B9F1020F91F9099000EB090A08BFF8
:10B9A000A8F120089AF801A00AF0030ABAF1020FE0
:10B9B00091F90AA091F90B1000EB0A0B08449BF8CF
:10B9C00001B04078CDF814C00BF0030B08BFA9F10B
:10B9D000200900F00300BBF1020F08BFAAF1200A02
:10B9E000022808BF20390991CDF820A0CDF81C907D
:10B9F000CDF818800649CDF810E08DE8F0000B98DE
:10BA000029F06AFF0DB0BDE8F08F00BF00010020F3
:10BA10006CF9030870B5054678B190F900306BB148
:10BA20002AF08EFA461C304629F034F8044638B124
:10BA30003246294629F028FB02E070BD184670BD49
:10BA4000204670BD38B504462AF07AFA621E0130ED
:10BA500012F9013F1BB12E2B08BF0130F8E729F086
:10BA600019F82F25034614F9012B52B12E2A0BBFCA
:10BA700019461A7001F8025B013304BF5A700B4675
:10BA8000F1E71A7038BD0000134B70B502441E6810
:10BA9000013903469A4218D913F8010B3418647817
:10BAA00004F00304012C11F8014F06EB040508BF54
:10BAB00020306D7805F00305012D08BF2034A04229
:10BAC00005DB07DC0028E5D105E0002070BD4FF064
:10BAD000FF3070BD012070BD00010020154B70B516
:10BAE0001D68461E11448A4218D016F8013FE81816
:10BAF000447812F8010B04F00304012C05EB000458
:10BB000008BF2033647804F00304012C08BF203000
:10BB1000834209DB0BDC0028E5D109E01078003016
:10BB200018BF0120404270BD4FF0FF3070BD0120B2
:10BB300070BD00BF000100202DE9F04F8BB04D1CFF
:10BB4000079093461E4602D12AF0FAF90146079B58
:10BB50005F18194600230393B34BD3F800C09BF83A
:10BB6000003063445B781C0713D50BF10102934648
:10BB700001329BF8003063445B781807F7D40B461A
:10BB8000BB42194605D20A78624401335278120743
:10BB9000F6D49BF80030002B00F01F83252B0CD02F
:10BBA000B94280F01A830A789A4240F016830BF16A
:10BBB000010B01F1010A5146CEE700200BF101050E
:10BBC000024604902B4615F8014B2A2C07D0232C53
:10BBD00001D10132F6E7262C04D10120F2E701233E
:10BBE0000493EFE70CEB040E9EF801E01EF0040F47
:10BBF0000DD0002413F8015B4FF00A0E303D0EFB10
:10BC000004541D7865446D786D07F3D40CE02E2C38
:10BC100008D13468002C2B4606F10405C0F2DD8201
:10BC20002E4601E06FF000441D786C2D11D003D832
:10BC3000682D06D06A2D02E0742D12D07A2D12D113
:10BC40000FE093F801E0BEF1680F0AD102334825F6
:10BC50000AE093F801E0BEF16C0F02D102334C25EB
:10BC600002E0013300E0002593F800E0BEF1000F90
:10BC700000F0B382BEF1690F03F1010B3BD018D87D
:10BC8000BEF15B0F00F0888007D8BEF1250F00F0F1
:10BC9000B680BEF1580F2CD09FE2BEF1630F2CD0BE
:10BCA000BEF1640F1DD0BEF1620F40F096820223F8
:10BCB000DBE0BEF1700F16D009D8BEF16E0F00F0B8
:10BCC000B580BEF16F0F40F088820823CDE0BEF151
:10BCD000750F06D0BEF1780F0BD0BEF1730F48D0B0
:10BCE0007BE20A23C1E01023002D40F0BE807546A0
:10BCF000BBE01023B9E00023B7E0002D40F06D82D7
:10BD00007B1A90B19C4228BF1C46049B01EB040A9D
:10BD1000002B7FF450AF336803B11960736806F1EC
:10BD20000802002B66D01C6064E06FF00042944271
:10BD300008BF01249C4200F35082049B13B101EB25
:10BD4000040A38E73368321D002B00F04682013BBD
:10BD50000D46601B0844002804DD15F8010B03F8AC
:10BD6000010FF6E7002CACBF01EB040A01F1000A59
:10BD700040E0002D40F03182B94280F0CB810B468B
:10BD800013F8015B0CEB050E9EF801E01EF0080FA6
:10BD900000F011821946EFE7002D40F01E8293F863
:10BDA00001E0BEF15E0F0CBF02335B461D785D2DD6
:10BDB0000CBF03F1010C9C469CF8008065460CF119
:10BDC000010CB8F1000F00F00882B8F15D0FF3D15B
:10BDD0004DE1002800F0CE818A46BA45C0F0B78117
:10BDE000336803B11960736806F1080213B1C1EB3F
:10BDF0000A011960039B013303931646DBE6002D0D
:10BE000040F0EB816FF000439C4240F0E681049BE0
:10BE1000002B40F0E281B94280F0DF810B78252BC6
:10BE200040F0DB81C5E600BF00010020002D40F09E
:10BE3000D4816FF000439C4240F0CF81049B002BE3
:10BE400040F0CB813368321D002B00F0C68107988B
:10BE5000081A186016468A46ADE60878604401F173
:10BE6000010E4078000703D57146B9420A46F4D363
:10BE7000781A01280DDD002C0BDD08782D2803D160
:10BE80004A1C013C012105E02B2804BF4A1C04F197
:10BE9000FF3400210591002B38D1BB1A022B26DD7F
:10BEA000012C25DD1378302B5ED153780CEB030188
:10BEB000497801F0030101290CBF03F12001194663
:10BEC00078290AD191786144497811F0440F04D05F
:10BED00002F1020E023C10234AE00CEB0301497808
:10BEE00001F00301012940F06B81203368E13BD16F
:10BEF000002C39DD1378302B36D15378303B072BAB
:10BF000032D802F1010E013C082331E0102B12D18E
:10BF1000B91A01292BDD012C29DD1178302926D110
:10BF200051780CEB0100407800F00300012808BFB5
:10BF30002031782913E0022B19D1B91A012916DD15
:10BF4000012C14DD1178302911D151780CEB01004E
:10BF5000407800F00300012808BF2031622906D193
:10BF600002F1020E023C03E096460A2300E09646E8
:10BF700000200021CDE900011846D917CDE90801BC
:10BF8000CDF818E0DDF818A0BA4530D2CAEB0408A5
:10BF9000F044B8F1000F2ADD069911F8018B0691E3
:10BFA0000CEB080149780846490702D5A8F130088A
:10BFB0000AE010F0440F1AD000F00301012908BF75
:10BFC00008F12008A8F15708434510DD01990098B1
:10BFD00003FB01FA099900FB01AAA3FB000110EB86
:10BFE0000809514441EBE87ACDE9009ACAE7524585
:10BFF00000F0F380049B002B7FF4DDAD059B33B193
:10C00000DDE900345B4264EB4404CDE9003432687E
:10C01000331D002A00F0E1806A2D1CD00DDC482D74
:10C0200015D001DCE5B1D8E04C2D14D0682D40F0DE
:10C03000D480BDF80010118014E0702D10D001DC08
:10C040006C2D02E0742D0BD07A2D09D0C5E09DF83F
:10C050000010117006E0DDE90001C2E9000101E015
:10C0600000991160039A013203921E46A3E5BEF1C6
:10C070005E0FE3468A4631D1BA4531D29AF800C004
:10C08000BCF1000F2CD0CAEB040E8E44BEF1000FA1
:10C0900026DD9E467545F04606D998F80080E045B5
:10C0A0000EF1010EF6D11BE00AF1010AE4E79AF85D
:10C0B00000C0BCF1000F13D0CAEB040E8E44BEF1D9
:10C0C000000F0DDD9E467545F04609D998F80080B1
:10C0D000E0450EF1010EF6D10AF1010ABA45E6D3A8
:10C0E000514501D1002A78D0049B002B7FF463AD29
:10C0F00000287FF475AE3368321D002B6DD08A4561
:10C1000004D911F8010B03F8010BF8E74FF0000117
:10C1100019706FE6002A60D0049B002B3FF459AEE3
:10C120008A46BA45BFF447AD9AF80030002B3FF479
:10C1300042AD63445B781A073FF53DADCAEB04039B
:10C140000B44002B7FF737AD0AF1010AE9E79AF8B3
:10C150000030002B3FF444AE63445B781B073FF58F
:10C160003FAECAEB04030B44002B7FF739AE0AF154
:10C17000010A32E63268301D7AB38A46BA4512D2D5
:10C180009AF800507DB1174B1B682B445B781E0753
:10C1900009D4CAEB04030B44002B04DD0AF1010AA5
:10C1A00002F8015BEAE74FF000031370039B0133D1
:10C1B00003930646FFE4002AAED1002DACD10CE07B
:10C1C000622B7FF49AAE9378303B012B3FF695AE0D
:10C1D00002F1020E023C0223CAE603980BB0BDE84E
:10C1E000F08F00BF0001002070B51546064629F00B
:10C1F000C3FF0446284629F0A3FE8442014606D325
:10C20000201A2A463044BDE87040FFF767BC4FF063
:10C21000FF3070BD41F4807149004000CB0548BF3C
:10C220000130C20344BF80F4815080F00100CB0391
:10C23000F2D580B2704700230380704770B5054681
:10C240000C468E18B44206D214F8011B2888FFF75A
:10C25000E1FF2880F6E770BD38B504460D4600883A
:10C260000021FFF7D7FF0021FFF7D4FF20802880AF
:10C2700038BD0000014B5868704700BF001000E057
:10C28000034B5868C0F30800003018BF0120704706
:10C2900000ED00E0174B1A6813B51C467AB116483A
:10C2A000FEF798FAFEF78CFA622300930146134BCF
:10C2B000134A144829F03EF80F48FEF7BFFA03F07E
:10C2C000DDFA88B123687BB10B48FEF783FAFEF7ED
:10C2D00077FA672300930146084B094A0A4829F078
:10C2E00029F80548FEF7AAFA1CF002FF002002B068
:10C2F00010BD00BF3C000020A00D0020E6F903089F
:10C30000FDF9030806FA03083EFA0308022805D8D7
:10C31000034B142202FB003000F0E4BF01487047D9
:10C320006CF30308B1E5FFFF202804D8034B03EBAF
:10C33000C00001F0B1B90248704700BF0CF5030816
:10C34000B1E5FFFF202804D8034B03EBC00001F048
:10C3500001B90248704700BF0CF50308B1E5FFFFC3
:10C36000202804D8034B03EBC00001F007B90248B2
:10C37000704700BF0CF50308B1E5FFFF202804D883
:10C38000034B03EBC00001F00DB90248704700BF3A
:10C390000CF50308B1E5FFFF202804D8034B03EB9D
:10C3A000C00001F017B90120704700BF0CF5030869
:10C3B000202810B405D8044C04EBC00010BC01F0D8
:10C3C000ABB9024810BC70470CF50308B1E5FFFF9C
:10C3D00073B50446007801282BD86388ADF8003087
:10C3E00023798DF802309DF80330134D23F00103BB
:10C3F0008DF8033063798DF8043055F820301BB97F
:10C4000005EB8000FEF74EFA207805EB8000FEF782
:10C41000E1F92278094B3420694600FB023001F033
:10C4200085FA0646207805EB8000FEF707FA3046CD
:10C4300000E0034802B070BDEC0900202CF60308B0
:10C44000B1E5FFFF37B504460078012823D863889B
:10C45000ADF8003023798DF802309DF803300F4D90
:10C4600023F001038DF8033063798DF8043055F81B
:10C4700020303BB105EB8000FEF744FA2378002220
:10C4800045F823202278064B3420694600FB023011
:10C4900001F046FC00E0034803B030BDEC09002089
:10C4A0002CF60308B1E5FFFF73B5044600780128B8
:10C4B0000D4624D86388ADF8003023798DF802301A
:10C4C0009DF803300F4E23F001038DF8033006EB87
:10C4D000800063798DF80430FEF77CF90A4B2078F0
:10C4E0002A46342505FB0030694601F0B9FA0546B5
:10C4F000207806EB8000FEF7A1F9284600E0012035
:10C5000002B070BDEC0900202CF6030801F0C2BA9D
:10C5100001F0D6BA30B4BDF80840BDF80C50039510
:10C52000029430BC01F0E2BA2DE9F34104460078F0
:10C5300001280F46904625D863889DF80350134E76
:10C54000ADF8003023798DF8023025F001056379CC
:10C550008DF8035006EB80008DF804300C4DFEF78B
:10C5600039F920783A4634274346694607FB00509C
:10C5700001F0DCFA0546207806EB8000FEF75EF954
:10C58000284600E0034802B0BDE8F081EC09002035
:10C590002CF60308B1E5FFFF012801D101F062BCD0
:10C5A00001F04ABC01F074BC7FB50378012B05464D
:10C5B0002DD8184C04EBC300426812B90430FEF7C2
:10C5C00071F96A78144B287803EBC20303936B6804
:10C5D000019304EBC0002B7A8DF8083004306B7A9D
:10C5E0008DF80930FEF7F6F828780C4B4C2101FB4A
:10C5F000003101AA04EBC00002F00EFB06462878C9
:10C6000004EBC0000430FEF719F9304600E004489E
:10C6100004B070BD740A00200CF50308C0F40308D0
:10C62000B1E5FFFF022830B413460CD868B10A46C2
:10C630000849442404FB0011074C2C2505FB00404D
:10C6400030BC02F041BE054801E04FF0FF3030BC85
:10C65000704700BF38F403081C0A0020B1E5FFFF53
:10C66000022810B406D8054B2C2404FB003010BC63
:10C6700002F04EBD024810BC704700BF1C0A0020EB
:10C68000B1E5FFFF022830B406D8054C2C2505FB88
:10C69000004030BC02F090BD024830BC704700BF83
:10C6A0001C0A0020B1E5FFFF022805D8034B2C220D
:10C6B00002FB003002F0DEBD002070471C0A0020A3
:10C6C00000F0D4B902F0E0BF03F0A0B8C3B2072B6A
:10C6D00007B517D90F4B1868C0B10F48FEF77AF8A5
:10C6E000FEF76EF80D4B01934FF40B730146009368
:10C6F0000B4A0C4B0C4828F01DFE0748FEF79EF82D
:10C70000002003E0094B142202FB003003B05DF867
:10C7100004FB00BF3C000020A00D00200A480408D4
:10C72000E6F90308BBF903087DF003086CF203087F
:10C73000C3B2072B2DE9F34142D8FFF7C7FF0378B7
:10C74000032B80463ED0224C0C2202FB0343181DD3
:10C750005B68C3B9FEF7A6F80546A0B11D4B1B6880
:10C760008BB31D48FEF736F8FEF72AF81B4B0193F2
:10C7700040F2472300930146194B1A4A1A4828F001
:10C78000D9FD154819E098F80000184F0C2606FB53
:10C7900000400430FEF71EF898F8000007EB001088
:10C7A00002F0DEF998F800305E430546A01907EB69
:10C7B00003170123A75104300371FEF73FF802E08D
:10C7C0000B4D00E00B4D284602B0BDE8F08100BFE4
:10C7D000D40900203C000020A00D00200A480408D5
:10C7E000B9FA0308E6F903087DF003080CF603081C
:10C7F000CFE5FFFFB9E5FFFF2DE9F84381460F467E
:10C800001446002A3ED0C3B2072B01D91F4C39E091
:10C81000FFF75CFF0378032B054630D002699207CF
:10C820002FD58068EA68074407F1FF38A044024426
:10C830009045EBD2164E0C2202FB03631B7ABBB170
:10C8400028784FF00C0909FB00600430FDF7C2FFA7
:10C850002878104B4246394603EB001001F044FFA4
:10C860000446287809FB00600430FDF7E7FF09E083
:10C870004846FFF75DFF04460028E1D002E0064C81
:10C8800000E0064C2046BDE8F88300BFCFE5FFFF7F
:10C89000D40900200CF60308B9E5FFFF8BE5FFFF84
:10C8A0002DE9F3470446884691461F46002B4AD09F
:10C8B000C3B2072B01D9284C4AE0FFF707FF0278E3
:10C8C000032A054641D003699B0740D58068D8F804
:10C8D0000030224E03440193D8F80030411E0B442F
:10C8E000142101FB04613B44C96801448B42E2D23C
:10C8F0001B4E0C2303FB0262137AEBB128784FF036
:10C900000C0A0AFB00600430FDF764FF2C78154820
:10C910003B464A4601A900EB041001F0A7FDAA68B6
:10C92000019B044628789B1A0AFB0060C8F8003077
:10C930000430FDF783FF0BE02046FFF7F9FE0446C5
:10C940000028DBD004E01C4602E0074C00E0074C66
:10C95000204602B0BDE8F087CFE5FFFF6CF2030888
:10C96000D40900200CF60308B9E5FFFF8BE5FFFFB3
:10C970002DE9F3470446884691461F46002B48D0D0
:10C98000C3B2072B47D8FFF7A1FE0278032A05465A
:10C990003BD00369DB073AD58068D8F80030034400
:10C9A0000193D8F80030411E0B44E9683B44014430
:10C9B0008B4230D21A4E0C2303FB0262137AEBB186
:10C9C00028784FF00C0A0AFB00600430FDF702FFE4
:10C9D0002C7814483B464A4601A900EB041001F0AC
:10C9E00039FCAA68019B044628789B1A0AFB006060
:10C9F000C8F800300430FDF721FF0DE02046FFF7B6
:10CA000097FE04460028DBD006E0074C04E0074C04
:10CA100002E01C4600E0064C204602B0BDE8F0876C
:10CA2000D40900200CF60308B9E5FFFF8BE5FFFFF2
:10CA3000CFE5FFFF37B50A4B0A4C1B6A02AD203B1E
:10CA400045F8043D21220021204628F01BFC20232C
:10CA5000224629460120FFF78BFF204603B030BD58
:10CA60006CF20308380D002000F052B9BFF34F8F6D
:10CA70000449054BCA6802F4E0621343CB60BFF37C
:10CA80004F8FFEE700ED00E00400FA0507B5012036
:10CA900003F030FB03F072FC002003F075FB002074
:10CAA00003F086FB4FF4805003F078FB032003F083
:10CAB000F3F8012003F0F6F8082202238DE80C00B9
:10CAC0004FF480000423C0220D2103F031FB01202C
:10CAD00003F042FB392003F03DFC0028FAD002208D
:10CAE00003F040FB03F048FB0828FBD1042003B00F
:10CAF0005DF804EB02F012BF7047000008B54FF07C
:10CB00008050012103F0F6FB022003F0E1FA38B176
:10CB10007D2003F01FFC18B103F048FC03F0C8FAB5
:10CB2000022003F0DFFA0023FF2103F1604202F547
:10CB300061420133512B82F80013F6D14FF440705B
:10CB400002F0AAFEFBF798FF00F056FD1148FDF732
:10CB5000A9FE1048FDF772FE0F48FDF7A3FE0E4830
:10CB6000FDF76CFE40220D490D4820F041FC0C4BB6
:10CB70000C4A0D490D4802F0A7FB00F0F3F800F055
:10CB80009DF800F089FC01F0DDF8BDE8084001F0F7
:10CB900053B900BFA00D00209C0D0020590D0020AE
:10CBA000A40D0020D0FA030838F403081C0A002062
:10CBB00010B5084C0144884209D0226813881B062E
:10CBC000FCD510F9013BC3F308039380F3E7002081
:10CBD00010BD00BF38F403082DE9F74FFFF74AFBFB
:10CBE00005462748274C03682749DFF8A8A0D4E961
:10CBF0000067C3EB0509254BD3F800B0244BB9FB04
:10CC0000FBF8B3FBFBF3B1FBF3F3E3FB086718A3FB
:10CC1000D3E90023BB4208BFB242C4E900678DE8F4
:10CC2000030014D214A3D3E900233046394627F079
:10CC300033FDDAF800301844CAF800000EA3D3E937
:10CC400000233046394627F027FDC4E90023009B26
:10CC5000019A0BFB1898C8EB0505D4E900011D608B
:10CC6000DAF80030E2FB030103B0BDE8F08F00BF4B
:10CC7000FFC99A3B0000000000CA9A3B0000000078
:10CC8000C40D0020B80D002000CA9A3BC00D002042
:10CC900000D8B805C80D0020054B064A0020002129
:10CCA000C3E9000100231360034A1360704700BF0B
:10CCB000B80D0020C80D0020C40D002038B5FFF7C6
:10CCC000EBFF0E4A0E4CD3680E4843F08073D360DE
:10CCD0000D4B00225A601A6842F001021A600123CB
:10CCE000B4FBF3F2B0FBF2F14A430649891A5D1C2A
:10CCF00009B12B46F4E7054A136038BDF0ED00E0BA
:10CD000000D8B80500CA9A3B001000E0C00D002012
:10CD1000F8B504460D46FFF75FFF06460F46FFF7DE
:10CD20005BFF801B61EB0701A94208BFA042F6D35D
:10CD3000F8BD704710B1034800F00CBC014800F08A
:10CD40001DBC00BF0CF3030810B5054C03212046A1
:10CD500000F0A2FC204600F011FC002010BD00BF36
:10CD60001CF3030810B5064CFFF7EEFF0321204625
:10CD700000F092FC204600F001FC002010BD00BF36
:10CD80000CF3030810B5064C0321204600F084FC88
:10CD9000204600F0F3FBFFF7D7FF002010BD00BFD7
:10CDA0000CF30308F7B50520FFF790FC02AEC76847
:10CDB00046F8047D4FF4006027F06CFE184C0546E1
:10CDC0002760019BA3F5006301932A464FF400639B
:10CDD00031460520FFF7CCFD019A2368A2F50062D9
:10CDE000A3F50063019205F5006100205B1BA942D9
:10CDF00003EB010709D051F804EDBEF1FF3F02D06B
:10CE000038B1276005E00120F1E700B12760002A72
:10CE1000D7D1284627F046FE206803B0F0BD00BFFA
:10CE2000CC0D0020F7B50D4C0192074605200D46AC
:10CE30001646FFF74BFC23680BB9C36823602368D1
:10CE40009C1BAC4228BF2C4623463A4601A905202C
:10CE5000FFF78EFD204603B0F0BD00BFCC0D0020D3
:10CE600003211620FFF760BA08B518B91620FFF79E
:10CE700077FA02E01620FFF765FA002008BD38B502
:10CE8000054620241320FFF76BFA002D4FF0140005
:10CE900002DAFFF757FA01E0FFF762FA1320013CCC
:10CEA000FFF750FA14F0FF044FEA4505EAD138BD08
:10CEB00008B503211320FFF737FA03211420BDE83A
:10CEC0000840FFF731BA70B5044600200E461546FB
:10CED000FFF7D5FF6FEA94106FEA161300F0030016
:10CEE00003F00C0360F03F0018436FEA950303F072
:10CEF000300344EA062444EA0542184342EA00604B
:10CF0000FFF7BDFF0020BDE87040FFF7B8BF00008D
:10CF1000F0B5844DA9B000242C6004F02FFD322020
:10CF200027F0B8FD0646002842D04FF4612308934D
:10CF30000146032332227C488DF824308DF82540A9
:10CF40008DF826408DF827408DF8284020F050FAC3
:10CF500008A9754A0120FFF765FB744800F074F9D1
:10CF6000734800F071F9734800F06EF9724800F0F0
:10CF70006BF9724800F068F9714800F065F96D4886
:10CF800000F062F92146802208A828F07BF90220EF
:10CF9000FFF79CFB07464FF4806027F07BFD06946B
:10CFA000054605A8ADF81640FC68FFF744F916E001
:10CFB0002B68002B00F0A9806248FDF70BFCFDF701
:10CFC000FFFB614B01938823009301465F4B604A4E
:10CFD000604828F0AFF95B48FDF730FC95E0002C85
:10CFE00012DDB4F5806F2746A8BF4FF480672A464C
:10CFF00006A93B460220FFF7BBFC3A46294605A896
:10D00000E41BFFF71BF9EAE70DF1160105A8FFF78E
:10D0100023F9BDF81630504A802108A828F00EFCEC
:10D0200015B1284627F03EFD08A800F00DF9434849
:10D0300000F00AF9494800F007F93E4800F004F909
:10D04000FFF7F8FC00F000F93C4800F0FDF8444818
:10D0500000F0FAF8374800F0F7F804F089FA00F029
:10D06000F3F8364800F0F0F83E4800F0EDF83148AB
:10D0700000F0EAF88022002108A828F003F98021B6
:10D0800008A81CF047FD08A800F0DEF82B4800F0C7
:10D09000DBF8354800F0D8F8264800F0D5F88022B3
:10D0A000002108A828F0EEF8802108A804F08AFBE7
:10D0B00008A800F0C9F8214800F0C6F806A80EF04C
:10D0C0008DFA9DF81D1003919DF81C1002919DF89A
:10D0D0001B1001919DF81A109DF819309DF8182029
:10D0E000009108A8214928F0F7FB214800F0ACF88E
:10D0F000104800F0A9F808A800F0A6F80F4800F0C2
:10D10000A3F804F035F900F047F8304627F0CAFCE0
:10D110004FF0FF30FDF7AFFD0020FDF761F929B0BA
:10D12000F0BD00BF3C000020D00D0020FAFA03083B
:10D130001EFB03087F2004082DFB0308C43B0408E2
:10D1400036FB0308A00D00200A480408A8FB0308CA
:10D15000F0FA03087DF003083FFB030844FB0308D3
:10D1600058FB030869FB030876FB03087EFB0308F2
:10D170009CFB030807B54FF4005300200093019077
:10D18000034B044A0721FDF711F903B05DF804FBD6
:10D1900011CF0008A0FB030813B5234800F054F892
:10D1A00001A800F067F8019C20490422204628F0DD
:10D1B0005FFF68B91E4800F047F8019804301BF083
:10D1C0001FFF1C49002814BF02464FF0FF3212E037
:10D1D00004221949204628F04BFF88B9144800F072
:10D1E00033F8019804301BF00BFF1449002814BFDA
:10D1F00002464FF0FF32019828F06EFB01980FE0D5
:10D2000005220F49204628F033FF40B9084800F0B6
:10D210001BF80198053004F0D7F802B010BD09489A
:10D2200000F012F8B9E700BFB8FB0308CAFB030817
:10D23000C43B0408CFFB0308EDFB0308F2FB030823
:10D2400010FC030816FC030810B5044628F078FE0D
:10D2500021460246BDE810400120FFF701BA07B59C
:10D2600002A9012201F8010D1046FFF7F9F903B0F8
:10D270005DF804FB70B51A4C046040220021204682
:10D2800028F000F800250122642321461046FFF70C
:10D29000F9F906460028F6D194F90000FFF7DFFF00
:10D2A00094F90030082B01D07F2B0AD1002DEAD051
:10D2B0002020FFF7D4FF14F90109FFF7D0FF013D4B
:10D2C000E1E70D2B03D1002323702E4606E00A2B45
:10D2D000F9D00135402D04F10104D4DD304670BD94
:10D2E000E00D0020F0B505468FB00F4600F0A4FD1C
:10D2F000002D61D0286900F08BFA0446B0B1314BA3
:10D300001B68002B59D03048FDF764FAFDF758FA36
:10D310002E4B01934D23009301462D4B2D4A2E4851
:10D3200028F008F82848FDF789FA46E02A691379B9
:10D330008DF80D00012606FA03F302938DF80F0015
:10D34000032310688DF80C3002A98DF80E6002F0EE
:10D350006BFD3146A86802F0D9FF08A802F010FB67
:10D3600008A9286808948DF824408DF825400B946E
:10D370000C948DF8346002F0DDFA04A802F01EFB74
:10D3800004A8049406940594079402F003FB28680B
:10D39000314602F019FB1148224630F81210B9420A
:10D3A000D3B203D20132082AF7D113462A7B297956
:10D3B000286802F012FB00E0094C00F053FD204603
:10D3C0000FB0F0BD3C000020A00D00200A4804086A
:10D3D0004CFC030881FC03087DF003083CFC0308B7
:10D3E000CFE5FFFF13B50446F0B16946002003F016
:10D3F000F5F8002001A903F059F99DF802302370D7
:10D400009DF8013063709DF80030A3709DF80430E2
:10D41000E3709DF8063023719DF8053063719DF827
:10D420000730A371002000E0014802B010BD00BF2A
:10D43000CFE5FFFF73B506783C2E0BD845783C2D21
:10D4400008D88178182905D802791F2A02D843798B
:10D450000C2B01D90F481BE000248DF80010C17877
:10D460008DF804108DF80530694683798DF8062013
:10D4700020468DF807308DF803408DF802608DF856
:10D48000015003F061F801A9204603F0CBF82046D3
:10D4900002B070BDCFE5FFFF1FB503F011F8002308
:10D4A00001937F23029301A8FF23039302F0C4FF9B
:10D4B00001214FF0805002F01DFF012002F0E0FD3D
:10D4C000012002F0EFFD012002F01CFE412002F0DD
:10D4D00041FF0028FAD04FF4807002F0D5FE012001
:10D4E00002F0EAFE02F0CAFF002003F0CFF9064C7A
:10D4F000A04206D00548FFF79DFF2146002003F01B
:10D50000B5F9002004B010BDF232BB004400002089
:10D5100037B5054600F090FC9DB102232A798DF8BD
:10D52000053002A901239340002441F8083D2868F2
:10D530008DF804408DF806408DF8074002F074FC29
:10D5400000E0034C00F08EFC204603B030BD00BF6D
:10D55000CFE5FFFF10B5044600F06EFC3CB1217929
:10D56000226801238B409BB21383002400E0024C0D
:10D5700000F078FC204610BDCFE5FFFF10B5044653
:10D5800048B100F059FC2179226801238B409BB2FD
:10D590005383002400E0024C00F064FC204610BDE0
:10D5A000CFE5FFFF10B5044600F046FC54B12068FB
:10D5B00023794169012202FA03F39BB24B40436194
:10D5C000002400E0024C00F04DFC204610BD00BFDE
:10D5D000CFE5FFFF10B5044600F02EFC44B12368F0
:10D5E00021791A6901238B40134214BF01240024BE
:10D5F00000F038FC204610BD08B5C02200210548C7
:10D6000027F040FE01214FF4804002F07FFE002011
:10D6100008BD00BF200E00201B4B98422AD012D814
:10D62000A3F54063984221D004D8A3F580639842C3
:10D6300028D025E0154B98421AD003F58063984214
:10D640001ED103207047124B984215D005D8A3F580
:10D650008063984214D1052070470E4B98420DD03C
:10D6600003F5806398420BD1082070470120704772
:10D67000022070470420704706207047072070473B
:10D68000FF20704700207047001002400008024051
:10D6900000180240001C024073B505460C4600F01D
:10D6A000CBFB6DB32A681046FFF7B6FF1749184B3E
:10D6B0000E6B53F8203033430B6302239C4294BF1C
:10D6C000002101218DF80410E11E18BF01218DF801
:10D6D00005308DF806100CB1052C01D1012302E0B4
:10D6E000012C18BF002329798DF8073001238B40C6
:10D6F00002A9104641F8083D02F096FB002400E024
:10D70000044C00F0AFFB204602B070BD0038024070
:10D71000B4FC0308CFE5FFFF2DE9F3470C460546AF
:10D7200090461F4690F8049000F086FB022C05D02E
:10D73000032C05D0012C59D1082602E00C2600E06C
:10D7400010262B790A2B0DD12B682C4A934202D13B
:10D750000221072004E02A4A934203D10221082033
:10D7600003F079F90123286803FA09F9FFF754FF58
:10D77000297903F070F919F01F0F03D02C790634C2
:10D7800064B209E019F4787F05D119F47C4F0CBF1D
:10D790000024282400E0172404F01F0A6409194B10
:10D7A000A40004F16044C3F8149004F5614401231B
:10D7B00003FA0AFAC4F880A18DF8056068460026CD
:10D7C0008DF80630CDF800908DF8046002F024FA50
:10D7D000C4F800A02A790C4928680C235343CA18BE
:10D7E000C8503446C2F80480976000E0074C00F04F
:10D7F00039FB204602B0BDE8F08700BF001C0240A4
:10D8000000200240003C0140200E0020CFE5FFFF39
:10D8100008B568B10068FFF7FFFEFF2808D0054A89
:10D82000054B116B53F820300B431363002008BDE8
:10D83000024808BD00380240B4FC0308CFE5FFFFF2
:10D840002DE9F3410D4617461E460446FFF7E4FE58
:10D85000804600F0F1FA1248124A036B52F8281081
:10D860001943016302218DF805108DF8041001237E
:10D8700002A9AB4041F8083D20468DF806708DF8AE
:10D88000076002F0D1FA9DF820202946204602F0D8
:10D890000DFB00F0E7FA002002B0BDE8F08100BF08
:10D8A00000380240B4FC030870B505460E464FF43C
:10D8B0007A743146284602F0B3FB012803D0013CBC
:10D8C000F7D1024870BD002070BD00BFBEE5FFFF6C
:10D8D0002DE9F041124B134E04460F469046002AA4
:10D8E00018BF1E464FF47A750121206802F066FBCE
:10D8F0000D492068FFF7D8FF70B9BB7863B9397854
:10D900002068490001F0FE01424602F06FFB3146FB
:10D910002068FFF7C9FF08B1013DE5D1BDE8F081FE
:10D9200002000300820007000100030070B50446F6
:10D9300086B00E4600F080FA002C79D00121E06814
:10D9400002F0D8FC6068FFF763FF054660B13B4B0F
:10D950001B68002B6DD03A48FCF73CFFFCF730FF0A
:10D96000384B0193502310E0A068FFF751FF0546A4
:10D97000B0B1324B1B68002B5BD03148FCF72AFF5B
:10D98000FCF71EFF2F4B01935223009301462E4BB1
:10D990002E4A2F4827F0CEFC2948FCF74FFF48E0DD
:10D9A00001214FF4804002F0B1FC0121E06802F057
:10D9B000B9FC2946E06802F0B5FC606894F83030A4
:10D9C0000179009301222B460068FFF739FFA06818
:10D9D00094F831300179009301222B460068FFF75B
:10D9E0002FFF4BF6FF73ADF80E30A023ADF81030CB
:10D9F0004FF48063ADF812304FF48043ADF814302B
:10DA00003379ADF80C5013B942F2107306E0012BD4
:10DA100001D1104B02E0022B01D10F4B0293206881
:10DA2000012102F0BFFA02A9206802F051FA00E0D9
:10DA30000A4D00F017FA284606B070BD3C000020E1
:10DA4000A00D00200A48040838FD030805FD03085E
:10DA50007DF00308A0860100801A0600CFE5FFFFD5
:10DA600038B504460D4600F0E7F954B129460022C6
:10DA70002046FFF72DFF01210546206802F0AAFA93
:10DA800000E0034D00F0EEF9B5FA85F0400938BD2D
:10DA9000CFE5FFFFF8B50E4615461F46044650B1C8
:10DAA00049B142B11022002127F0ECFB2660A7818A
:10DAB00025810020F8BD0148F8BD00BFCFE5FFFF7C
:10DAC000F8B50E4615461F46044650B149B142B15D
:10DAD0001022002127F0D6FB6660A7816581002017
:10DAE000F8BD0148F8BD00BFCFE5FFFF2DE9F041CB
:10DAF0000F4690461E46BDF81850044688B181B1C5
:10DB00007BB172B16DB11022002127F0BBFBBDF8D3
